{
  "_format": "hh3-artifact-1",
  "contractName": "BTLTokenFacet",
  "sourceName": "contracts/facets/BTLTokenFacet.sol",
  "abi": [
    {
      "anonymous": false,
      "inputs": [
        {
          "indexed": true,
          "internalType": "address",
          "name": "owner",
          "type": "address"
        },
        {
          "indexed": true,
          "internalType": "address",
          "name": "spender",
          "type": "address"
        },
        {
          "indexed": false,
          "internalType": "uint256",
          "name": "value",
          "type": "uint256"
        }
      ],
      "name": "Approval",
      "type": "event"
    },
    {
      "anonymous": false,
      "inputs": [
        {
          "indexed": true,
          "internalType": "address",
          "name": "from",
          "type": "address"
        },
        {
          "indexed": true,
          "internalType": "address",
          "name": "to",
          "type": "address"
        },
        {
          "indexed": false,
          "internalType": "uint256",
          "name": "value",
          "type": "uint256"
        }
      ],
      "name": "Transfer",
      "type": "event"
    },
    {
      "anonymous": false,
      "inputs": [
        {
          "indexed": true,
          "internalType": "address",
          "name": "from",
          "type": "address"
        },
        {
          "indexed": false,
          "internalType": "uint256",
          "name": "feeAmount",
          "type": "uint256"
        }
      ],
      "name": "TransferFeeCollected",
      "type": "event"
    },
    {
      "inputs": [
        {
          "internalType": "address",
          "name": "owner",
          "type": "address"
        },
        {
          "internalType": "address",
          "name": "spender",
          "type": "address"
        }
      ],
      "name": "btlAllowance",
      "outputs": [
        {
          "internalType": "uint256",
          "name": "",
          "type": "uint256"
        }
      ],
      "stateMutability": "view",
      "type": "function"
    },
    {
      "inputs": [
        {
          "internalType": "address",
          "name": "spender",
          "type": "address"
        },
        {
          "internalType": "uint256",
          "name": "amount",
          "type": "uint256"
        }
      ],
      "name": "btlApprove",
      "outputs": [
        {
          "internalType": "bool",
          "name": "",
          "type": "bool"
        }
      ],
      "stateMutability": "nonpayable",
      "type": "function"
    },
    {
      "inputs": [
        {
          "internalType": "address",
          "name": "account",
          "type": "address"
        }
      ],
      "name": "btlBalanceOf",
      "outputs": [
        {
          "internalType": "uint256",
          "name": "",
          "type": "uint256"
        }
      ],
      "stateMutability": "view",
      "type": "function"
    },
    {
      "inputs": [
        {
          "internalType": "uint256",
          "name": "amount",
          "type": "uint256"
        }
      ],
      "name": "btlBurn",
      "outputs": [],
      "stateMutability": "nonpayable",
      "type": "function"
    },
    {
      "inputs": [],
      "name": "btlDecimals",
      "outputs": [
        {
          "internalType": "uint8",
          "name": "",
          "type": "uint8"
        }
      ],
      "stateMutability": "pure",
      "type": "function"
    },
    {
      "inputs": [
        {
          "internalType": "address",
          "name": "spender",
          "type": "address"
        },
        {
          "internalType": "uint256",
          "name": "subtractedValue",
          "type": "uint256"
        }
      ],
      "name": "btlDecreaseAllowance",
      "outputs": [
        {
          "internalType": "bool",
          "name": "",
          "type": "bool"
        }
      ],
      "stateMutability": "nonpayable",
      "type": "function"
    },
    {
      "inputs": [],
      "name": "btlGetTransferFee",
      "outputs": [
        {
          "internalType": "uint256",
          "name": "",
          "type": "uint256"
        }
      ],
      "stateMutability": "view",
      "type": "function"
    },
    {
      "inputs": [
        {
          "internalType": "address",
          "name": "spender",
          "type": "address"
        },
        {
          "internalType": "uint256",
          "name": "addedValue",
          "type": "uint256"
        }
      ],
      "name": "btlIncreaseAllowance",
      "outputs": [
        {
          "internalType": "bool",
          "name": "",
          "type": "bool"
        }
      ],
      "stateMutability": "nonpayable",
      "type": "function"
    },
    {
      "inputs": [
        {
          "internalType": "address",
          "name": "to",
          "type": "address"
        },
        {
          "internalType": "uint256",
          "name": "amount",
          "type": "uint256"
        }
      ],
      "name": "btlMint",
      "outputs": [],
      "stateMutability": "nonpayable",
      "type": "function"
    },
    {
      "inputs": [],
      "name": "btlName",
      "outputs": [
        {
          "internalType": "string",
          "name": "",
          "type": "string"
        }
      ],
      "stateMutability": "view",
      "type": "function"
    },
    {
      "inputs": [
        {
          "internalType": "uint256",
          "name": "feeBasisPoints",
          "type": "uint256"
        }
      ],
      "name": "btlSetTransferFee",
      "outputs": [],
      "stateMutability": "nonpayable",
      "type": "function"
    },
    {
      "inputs": [],
      "name": "btlSymbol",
      "outputs": [
        {
          "internalType": "string",
          "name": "",
          "type": "string"
        }
      ],
      "stateMutability": "view",
      "type": "function"
    },
    {
      "inputs": [],
      "name": "btlTotalSupply",
      "outputs": [
        {
          "internalType": "uint256",
          "name": "",
          "type": "uint256"
        }
      ],
      "stateMutability": "view",
      "type": "function"
    },
    {
      "inputs": [
        {
          "internalType": "address",
          "name": "to",
          "type": "address"
        },
        {
          "internalType": "uint256",
          "name": "amount",
          "type": "uint256"
        }
      ],
      "name": "btlTransfer",
      "outputs": [
        {
          "internalType": "bool",
          "name": "",
          "type": "bool"
        }
      ],
      "stateMutability": "nonpayable",
      "type": "function"
    },
    {
      "inputs": [
        {
          "internalType": "address",
          "name": "from",
          "type": "address"
        },
        {
          "internalType": "address",
          "name": "to",
          "type": "address"
        },
        {
          "internalType": "uint256",
          "name": "amount",
          "type": "uint256"
        }
      ],
      "name": "btlTransferFrom",
      "outputs": [
        {
          "internalType": "bool",
          "name": "",
          "type": "bool"
        }
      ],
      "stateMutability": "nonpayable",
      "type": "function"
    }
  ],
  "bytecode": "0x6080604052348015600e575f5ffd5b50610ec38061001c5f395ff3fe608060405234801561000f575f5ffd5b50600436106100f0575f3560e01c8063b298984d11610093578063cb28e08111610063578063cb28e0811461021c578063e1c606bb14610224578063e68f75a81461024b578063ebeb215e1461025e575f5ffd5b8063b298984d1461019c578063bb1d7f11146101af578063ca108de9146101f6578063ca3d63a714610209575f5ffd5b8063671ec4d6116100ce578063671ec4d6146101525780636c46f82a1461016157806399fd6780146101745780639b9b9cab14610189575f5ffd5b806314dca8d9146100f4578063152e40511461011a5780633cc697e01461012f575b5f5ffd5b610107610102366004610ca6565b610285565b6040519081526020015b60405180910390f35b61012d610128366004610cd7565b6102d0565b005b61014261013d366004610cee565b61038f565b6040519015158152602001610111565b60405160128152602001610111565b61014261016f366004610d16565b61040d565b61017c6104e2565b6040516101119190610d50565b610142610197366004610cee565b61057e565b6101426101aa366004610cee565b61059b565b6101076101bd366004610d85565b6001600160a01b03165f9081527f7584c7413a623a30d701855d65da80b54e1c52170430bfee44c188cbe94267a2602052604090205490565b610142610204366004610cee565b610693565b61012d610217366004610cd7565b61073b565b61017c6107b9565b7f7584c7413a623a30d701855d65da80b54e1c52170430bfee44c188cbe94267a454610107565b61012d610259366004610cee565b6107d7565b7f7584c7413a623a30d701855d65da80b54e1c52170430bfee44c188cbe94267a154610107565b6001600160a01b038281165f9081527f7584c7413a623a30d701855d65da80b54e1c52170430bfee44c188cbe94267a360209081526040808320938516835292905220545b92915050565b5f516020610e6e5f395f51905f526102e661092b565b335f9081526004820160205260409020548211156103475760405162461bcd60e51b815260206004820152601960248201527842544c3a20496e73756666696369656e742062616c616e636560381b60448201526064015b60405180910390fd5b335f8181526004830160209081526040808320805487900390556003850180548790039055518581529192915f516020610e4e5f395f51905f52910160405180910390a35050565b5f5f516020610e6e5f395f51905f526103a661092b565b335f81815260058301602090815260408083206001600160a01b03891680855290835292819020879055518681529192917f8c5be1e5ebec7d5bd14f71427d1e84f3dd0314c0f7b2291e5b200ac8c7c3b92591015b60405180910390a35060019392505050565b5f5f516020610e6e5f395f51905f5261042461092b565b6001600160a01b0385165f9081526005820160209081526040808320338452909152902054838110156104995760405162461bcd60e51b815260206004820152601b60248201527f42544c3a20496e73756666696369656e7420616c6c6f77616e63650000000000604482015260640161033e565b5f1981146104cb576001600160a01b0386165f9081526005830160209081526040808320338452909152902084820390555b6104d68686866109a9565b50600195945050505050565b60605f516020610e6e5f395f51905f5280546104fd90610da5565b80601f016020809104026020016040519081016040528092919081815260200182805461052990610da5565b80156105745780601f1061054b57610100808354040283529160200191610574565b820191905f5260205f20905b81548152906001019060200180831161055757829003601f168201915b5050505050905090565b5f61058761092b565b6105923384846109a9565b50600192915050565b5f5f516020610e6e5f395f51905f526105b261092b565b335f90815260058201602090815260408083206001600160a01b0388168452909152902054838110156106275760405162461bcd60e51b815260206004820152601960248201527f42544c3a20416c6c6f77616e63652062656c6f77207a65726f00000000000000604482015260640161033e565b335f81815260058401602090815260408083206001600160a01b038a16808552908352928190208886039081905590519081529192917f8c5be1e5ebec7d5bd14f71427d1e84f3dd0314c0f7b2291e5b200ac8c7c3b925910160405180910390a3506001949350505050565b5f5f516020610e6e5f395f51905f526106aa61092b565b335f90815260058201602090815260408083206001600160a01b0388168452909152812080548592906106de908490610df1565b9091555050335f81815260058301602090815260408083206001600160a01b038916808552908352928190205490519081529192917f8c5be1e5ebec7d5bd14f71427d1e84f3dd0314c0f7b2291e5b200ac8c7c3b92591016103fb565b610743610bfc565b6103e88111156107955760405162461bcd60e51b815260206004820152601a60248201527f42544c3a204665652063616e6e6f742065786365656420313025000000000000604482015260640161033e565b7f7584c7413a623a30d701855d65da80b54e1c52170430bfee44c188cbe94267a455565b60605f516020610e6e5f395f51905f5260010180546104fd90610da5565b335f9081527f5a6d09871d9ef1da1e845f76ae7e3d9c6b7bac26bae59fbe224fbbfcff93dc8e60205260409020545f516020610e6e5f395f51905f529060ff168061085d57507fa49807205ce4d355092ef5a8a18f56e8913cf4a201fbe287825b095693c217755f908152602982016020908152604080832033845290915290205460ff165b6108a95760405162461bcd60e51b815260206004820152601b60248201527f42544c3a204e6f7420617574686f72697a656420746f206d696e740000000000604482015260640161033e565b6108b161092b565b6001600160a01b0383165f908152600482016020526040812080548492906108da908490610df1565b9250508190555081816003015f8282546108f49190610df1565b90915550506040518281526001600160a01b038416905f905f516020610e4e5f395f51905f529060200160405180910390a3505050565b7f7584c7413a623a30d701855d65da80b54e1c52170430bfee44c188cbe94267c85460ff16156109a75760405162461bcd60e51b815260206004820152602160248201527f4c696241707053746f726167653a20436f6e74726163742069732070617573656044820152601960fa1b606482015260840161033e565b565b5f516020610e6e5f395f51905f526001600160a01b038416610a0d5760405162461bcd60e51b815260206004820152601f60248201527f42544c3a205472616e736665722066726f6d207a65726f206164647265737300604482015260640161033e565b6001600160a01b038316610a635760405162461bcd60e51b815260206004820152601d60248201527f42544c3a205472616e7366657220746f207a65726f2061646472657373000000604482015260640161033e565b6001600160a01b0384165f908152600482016020526040902054821115610ac85760405162461bcd60e51b815260206004820152601960248201527842544c3a20496e73756666696369656e742062616c616e636560381b604482015260640161033e565b5f612710826006015484610adc9190610e04565b610ae69190610e1b565b90505f610af38285610e3a565b6001600160a01b038088165f9081526004860160205260408082208054899003905591881681522080548201905590508115610bba57305f90815260048401602052604081208054849290610b49908490610df1565b90915550506040518281526001600160a01b038716907f6db1fb26646961807cf8b4871a18ef3bead9ef300d5c022d10d1c2d7d306cbec9060200160405180910390a260405182815230906001600160a01b038816905f516020610e4e5f395f51905f529060200160405180910390a35b846001600160a01b0316866001600160a01b03165f516020610e4e5f395f51905f5283604051610bec91815260200190565b60405180910390a3505050505050565b335f9081527f99dc07a1da7c2c8b9d01a882532da5ca861f9326070b5c9d34c831d19e0fb52e60205260409020545f516020610e6e5f395f51905f529060ff16610c885760405162461bcd60e51b815260206004820152601c60248201527f4c696241707053746f726167653a204d7573742062652061646d696e00000000604482015260640161033e565b50565b80356001600160a01b0381168114610ca1575f5ffd5b919050565b5f5f60408385031215610cb7575f5ffd5b610cc083610c8b565b9150610cce60208401610c8b565b90509250929050565b5f60208284031215610ce7575f5ffd5b5035919050565b5f5f60408385031215610cff575f5ffd5b610d0883610c8b565b946020939093013593505050565b5f5f5f60608486031215610d28575f5ffd5b610d3184610c8b565b9250610d3f60208501610c8b565b929592945050506040919091013590565b602081525f82518060208401528060208501604085015e5f604082850101526040601f19601f83011684010191505092915050565b5f60208284031215610d95575f5ffd5b610d9e82610c8b565b9392505050565b600181811c90821680610db957607f821691505b602082108103610dd757634e487b7160e01b5f52602260045260245ffd5b50919050565b634e487b7160e01b5f52601160045260245ffd5b808201808211156102ca576102ca610ddd565b80820281158282048414176102ca576102ca610ddd565b5f82610e3557634e487b7160e01b5f52601260045260245ffd5b500490565b818103818111156102ca576102ca610ddd56feddf252ad1be2c89b69c2b068fc378daa952ba7f163c4a11628f55a4df523b3ef7584c7413a623a30d701855d65da80b54e1c52170430bfee44c188cbe942679ea2646970667358221220801663daf31cb5aac97c210e03c79d77631ea0da96579ad6dc7990e9c0251d8564736f6c634300081e0033",
  "linkReferences": {},
  "deployedLinkReferences": {},
  "immutableReferences": {},
  "inputSourceName": "project/contracts/facets/BTLTokenFacet.sol",
  "buildInfoId": "solc-0_8_30-6eef6695096d54aeed757a53987bbe39566bc1a3"
}