{
  "_format": "hh3-artifact-1",
  "contractName": "GovernanceFacet",
  "sourceName": "contracts/facets/GovernanceFacet.sol",
  "abi": [
    {
      "anonymous": false,
      "inputs": [
        {
          "indexed": true,
          "internalType": "address",
          "name": "delegator",
          "type": "address"
        },
        {
          "indexed": true,
          "internalType": "address",
          "name": "fromDelegate",
          "type": "address"
        },
        {
          "indexed": true,
          "internalType": "address",
          "name": "toDelegate",
          "type": "address"
        }
      ],
      "name": "DelegateChanged",
      "type": "event"
    },
    {
      "anonymous": false,
      "inputs": [
        {
          "indexed": true,
          "internalType": "uint256",
          "name": "proposalId",
          "type": "uint256"
        }
      ],
      "name": "ProposalCanceled",
      "type": "event"
    },
    {
      "anonymous": false,
      "inputs": [
        {
          "indexed": true,
          "internalType": "uint256",
          "name": "proposalId",
          "type": "uint256"
        },
        {
          "indexed": true,
          "internalType": "address",
          "name": "proposer",
          "type": "address"
        },
        {
          "indexed": false,
          "internalType": "string",
          "name": "description",
          "type": "string"
        },
        {
          "indexed": false,
          "internalType": "uint256",
          "name": "startBlock",
          "type": "uint256"
        },
        {
          "indexed": false,
          "internalType": "uint256",
          "name": "endBlock",
          "type": "uint256"
        }
      ],
      "name": "ProposalCreated",
      "type": "event"
    },
    {
      "anonymous": false,
      "inputs": [
        {
          "indexed": true,
          "internalType": "uint256",
          "name": "proposalId",
          "type": "uint256"
        }
      ],
      "name": "ProposalExecuted",
      "type": "event"
    },
    {
      "anonymous": false,
      "inputs": [
        {
          "indexed": true,
          "internalType": "address",
          "name": "voter",
          "type": "address"
        },
        {
          "indexed": true,
          "internalType": "uint256",
          "name": "proposalId",
          "type": "uint256"
        },
        {
          "indexed": false,
          "internalType": "bool",
          "name": "support",
          "type": "bool"
        },
        {
          "indexed": false,
          "internalType": "uint256",
          "name": "votes",
          "type": "uint256"
        }
      ],
      "name": "VoteCast",
      "type": "event"
    },
    {
      "inputs": [
        {
          "internalType": "uint256",
          "name": "proposalId",
          "type": "uint256"
        }
      ],
      "name": "cancel",
      "outputs": [],
      "stateMutability": "nonpayable",
      "type": "function"
    },
    {
      "inputs": [
        {
          "internalType": "uint256",
          "name": "proposalId",
          "type": "uint256"
        },
        {
          "internalType": "bool",
          "name": "support",
          "type": "bool"
        }
      ],
      "name": "castVote",
      "outputs": [],
      "stateMutability": "nonpayable",
      "type": "function"
    },
    {
      "inputs": [
        {
          "internalType": "address",
          "name": "delegatee",
          "type": "address"
        }
      ],
      "name": "delegate",
      "outputs": [],
      "stateMutability": "nonpayable",
      "type": "function"
    },
    {
      "inputs": [
        {
          "internalType": "uint256",
          "name": "proposalId",
          "type": "uint256"
        }
      ],
      "name": "execute",
      "outputs": [],
      "stateMutability": "nonpayable",
      "type": "function"
    },
    {
      "inputs": [
        {
          "internalType": "address",
          "name": "delegator",
          "type": "address"
        }
      ],
      "name": "getCurrentDelegate",
      "outputs": [
        {
          "internalType": "address",
          "name": "",
          "type": "address"
        }
      ],
      "stateMutability": "view",
      "type": "function"
    },
    {
      "inputs": [
        {
          "internalType": "address",
          "name": "account",
          "type": "address"
        }
      ],
      "name": "getCurrentVotes",
      "outputs": [
        {
          "internalType": "uint256",
          "name": "",
          "type": "uint256"
        }
      ],
      "stateMutability": "view",
      "type": "function"
    },
    {
      "inputs": [],
      "name": "getGovernanceParams",
      "outputs": [
        {
          "internalType": "uint256",
          "name": "votingDelay",
          "type": "uint256"
        },
        {
          "internalType": "uint256",
          "name": "votingPeriod",
          "type": "uint256"
        },
        {
          "internalType": "uint256",
          "name": "proposalThreshold",
          "type": "uint256"
        },
        {
          "internalType": "uint256",
          "name": "quorumVotes",
          "type": "uint256"
        }
      ],
      "stateMutability": "view",
      "type": "function"
    },
    {
      "inputs": [
        {
          "internalType": "uint256",
          "name": "proposalId",
          "type": "uint256"
        }
      ],
      "name": "getProposal",
      "outputs": [
        {
          "internalType": "address",
          "name": "proposer",
          "type": "address"
        },
        {
          "internalType": "string",
          "name": "description",
          "type": "string"
        },
        {
          "internalType": "uint256",
          "name": "forVotes",
          "type": "uint256"
        },
        {
          "internalType": "uint256",
          "name": "againstVotes",
          "type": "uint256"
        },
        {
          "internalType": "uint256",
          "name": "startBlock",
          "type": "uint256"
        },
        {
          "internalType": "uint256",
          "name": "endBlock",
          "type": "uint256"
        },
        {
          "internalType": "bool",
          "name": "executed",
          "type": "bool"
        },
        {
          "internalType": "bool",
          "name": "canceled",
          "type": "bool"
        }
      ],
      "stateMutability": "view",
      "type": "function"
    },
    {
      "inputs": [],
      "name": "getProposalCount",
      "outputs": [
        {
          "internalType": "uint256",
          "name": "",
          "type": "uint256"
        }
      ],
      "stateMutability": "view",
      "type": "function"
    },
    {
      "inputs": [
        {
          "internalType": "uint256",
          "name": "proposalId",
          "type": "uint256"
        }
      ],
      "name": "getProposalState",
      "outputs": [
        {
          "internalType": "uint8",
          "name": "",
          "type": "uint8"
        }
      ],
      "stateMutability": "view",
      "type": "function"
    },
    {
      "inputs": [
        {
          "internalType": "uint256",
          "name": "proposalId",
          "type": "uint256"
        },
        {
          "internalType": "address",
          "name": "voter",
          "type": "address"
        }
      ],
      "name": "getReceipt",
      "outputs": [
        {
          "internalType": "bool",
          "name": "hasVoted",
          "type": "bool"
        },
        {
          "internalType": "bool",
          "name": "support",
          "type": "bool"
        },
        {
          "internalType": "uint256",
          "name": "votes",
          "type": "uint256"
        }
      ],
      "stateMutability": "view",
      "type": "function"
    },
    {
      "inputs": [
        {
          "internalType": "string",
          "name": "description",
          "type": "string"
        }
      ],
      "name": "propose",
      "outputs": [
        {
          "internalType": "uint256",
          "name": "proposalId",
          "type": "uint256"
        }
      ],
      "stateMutability": "nonpayable",
      "type": "function"
    },
    {
      "inputs": [
        {
          "internalType": "uint256",
          "name": "votingDelay_",
          "type": "uint256"
        },
        {
          "internalType": "uint256",
          "name": "votingPeriod_",
          "type": "uint256"
        },
        {
          "internalType": "uint256",
          "name": "proposalThreshold_",
          "type": "uint256"
        },
        {
          "internalType": "uint256",
          "name": "quorumVotes_",
          "type": "uint256"
        }
      ],
      "name": "setGovernanceParams",
      "outputs": [],
      "stateMutability": "nonpayable",
      "type": "function"
    }
  ],
  "bytecode": "0x6080604052348015600e575f5ffd5b50611a6e8061001c5f395ff3fe608060405234801561000f575f5ffd5b50600436106100cb575f3560e01c80639080936f11610088578063c08cc02d11610063578063c08cc02d146101ce578063c7f758a8146101d6578063e23a9a52146101fd578063fe0d94c11461022d575f5ffd5b80639080936f14610175578063aa98df391461019a578063b4b5ea57146101bb575f5ffd5b8063078f6208146100cf57806315373e3d146100fc57806340e58ee5146101115780635c19a95c146101245780635da23e7f146101375780638e95df901461014a575b5f5ffd5b6100d7610240565b6040805194855260208501939093529183015260608201526080015b60405180910390f35b61010f61010a3660046115e5565b610271565b005b61010f61011f366004611617565b610591565b61010f610132366004611649565b61075c565b61010f610145366004611669565b6108df565b61015d610158366004611649565b610a85565b6040516001600160a01b0390911681526020016100f3565b610188610183366004611617565b610ab3565b60405160ff90911681526020016100f3565b6101ad6101a83660046116ac565b610b99565b6040519081526020016100f3565b6101ad6101c9366004611649565b610d41565b6101ad610db2565b6101e96101e4366004611617565b610dc4565b6040516100f398979695949392919061178d565b61021061020b3660046117e7565b610ef3565b6040805193151584529115156020840152908201526060016100f3565b61010f61023b366004611617565b610f40565b5f5f5f5f5f61024d611217565b60228101546023820154602483015460259093015491989097509195509350915050565b5f61027a611217565b905061028461123b565b806020015483106102b05760405162461bcd60e51b81526004016102a790611811565b60405180910390fd5b5f838152601f820160205260409020600681015460ff16156103225760405162461bcd60e51b815260206004820152602560248201527f476f7665726e616e63653a2050726f706f73616c20616c72656164792065786560448201526418dd5d195960da1b60648201526084016102a7565b6006810154610100900460ff161561037c5760405162461bcd60e51b815260206004820152601d60248201527f476f7665726e616e63653a2050726f706f73616c2063616e63656c656400000060448201526064016102a7565b80600401544310156103d05760405162461bcd60e51b815260206004820152601e60248201527f476f7665726e616e63653a20566f74696e67206e6f742073746172746564000060448201526064016102a7565b80600501544311156104245760405162461bcd60e51b815260206004820152601860248201527f476f7665726e616e63653a20566f74696e6720656e646564000000000000000060448201526064016102a7565b5f84815260218301602090815260408083203384529091529020805460ff16156104905760405162461bcd60e51b815260206004820152601960248201527f476f7665726e616e63653a20416c726561647920766f7465640000000000000060448201526064016102a7565b335f908152600484016020526040902054806104ee5760405162461bcd60e51b815260206004820152601b60248201527f476f7665726e616e63653a204e6f20766f74696e6720706f776572000000000060448201526064016102a7565b8154851580156101000261ffff19909216919091176001908117845583018290556105315780836002015f828254610526919061185c565b9091555061054a9050565b80836003015f828254610544919061185c565b90915550505b60408051861515815260208101839052879133917f877856338e13f63d0c36822ff0ef736b80934cd90574a3a5bc9262c39d217c46910160405180910390a3505050505050565b5f61059a611217565b9050806020015482106105bf5760405162461bcd60e51b81526004016102a790611811565b5f828152601f820160205260409020600681015460ff16156106235760405162461bcd60e51b815260206004820152601c60248201527f476f7665726e616e63653a20416c72656164792065786563757465640000000060448201526064016102a7565b6006810154610100900460ff161561067d5760405162461bcd60e51b815260206004820152601c60248201527f476f7665726e616e63653a20416c72656164792063616e63656c65640000000060448201526064016102a7565b80546001600160a01b03163314806106d057507fa49807205ce4d355092ef5a8a18f56e8913cf4a201fbe287825b095693c217755f908152602983016020908152604080832033845290915290205460ff165b61071c5760405162461bcd60e51b815260206004820152601a60248201527f476f7665726e616e63653a204e6f7420617574686f72697a656400000000000060448201526064016102a7565b60068101805461ff00191661010017905560405183907f789cf55be980739dad1d0699b93b58e806b51c9d96619bfa8fe0a28abaa7b30c905f90a2505050565b5f610765611217565b905061076f61123b565b6001600160a01b0382166107d95760405162461bcd60e51b815260206004820152602b60248201527f476f7665726e616e63653a2043616e6e6f742064656c656761746520746f207a60448201526a65726f206164647265737360a81b60648201526084016102a7565b335f9081526026820160205260409020546001600160a01b0390811690831681900361085d5760405162461bcd60e51b815260206004820152602d60248201527f476f7665726e616e63653a20416c72656164792064656c65676174656420746f60448201526c2074686973206164647265737360981b60648201526084016102a7565b335f908152602683016020908152604080832080546001600160a01b0319166001600160a01b038816179055600485019091529020546108a090829085906112a3565b6040516001600160a01b03808516919083169033907f3134e8a2e6d97e929a7e54011ea5485d7d196dd5f0ba4d4ef95803e8e3fc257f905f90a4505050565b6108e7611413565b600184101580156108fa575061c4e08411155b6109465760405162461bcd60e51b815260206004820181905260248201527f476f7665726e616e63653a20496e76616c696420766f74696e672064656c617960448201526064016102a7565b611680831015801561095b5750620189c08311155b6109b15760405162461bcd60e51b815260206004820152602160248201527f476f7665726e616e63653a20496e76616c696420766f74696e6720706572696f6044820152601960fa1b60648201526084016102a7565b5f8211610a0f5760405162461bcd60e51b815260206004820152602660248201527f476f7665726e616e63653a20496e76616c69642070726f706f73616c20746872604482015265195cda1bdb1960d21b60648201526084016102a7565b5f8111610a5e5760405162461bcd60e51b815260206004820152601a60248201527f476f7665726e616e63653a20496e76616c69642071756f72756d00000000000060448201526064016102a7565b5f610a67611217565b60228101959095555060238401929092556024830155602590910155565b5f610a8e611217565b6001600160a01b039283165f9081526026919091016020526040902054909116919050565b5f5f610abd611217565b905080602001548310610ae25760405162461bcd60e51b81526004016102a790611811565b5f838152601f8201602052604090206006810154610100900460ff1615610b0d575060059392505050565b600681015460ff1615610b24575060049392505050565b80600401544311610b3857505f9392505050565b80600501544311610b4d575060019392505050565b5f81600301548260020154610b62919061185c565b90508260250154811080610b7e57508160030154826002015411155b15610b8e57506002949350505050565b506003949350505050565b5f5f610ba3611217565b9050610bad61123b565b5f835111610bfd5760405162461bcd60e51b815260206004820152601d60248201527f476f7665726e616e63653a20456d707479206465736372697074696f6e00000060448201526064016102a7565b6024810154335f9081526004830160205260409020541015610c6d5760405162461bcd60e51b8152602060048201526024808201527f476f7665726e616e63653a2042656c6f772070726f706f73616c2074687265736044820152631a1bdb1960e21b60648201526084016102a7565b602081018054905f610c7e83611875565b909155505f818152601f83016020526040902080546001600160a01b0319163317815590925060018101610cb2858261190e565b506022820154610cc2904361185c565b600482018190556023830154610cd79161185c565b600582018190555f60028301819055600383015560068201805461ffff191690556004820154604051339286927f6c98a8c940418b35614f0cd02412d5c9606faff474cbb6cdd6640ba5d1a9f06b92610d32928a92916119c9565b60405180910390a35050919050565b5f5f610d4b611217565b6001600160a01b0384165f90815260278201602052604090205490915080610d73575f610daa565b6001600160a01b0384165f908152602883016020526040812090610d986001846119ed565b81526020019081526020015f20600101545b949350505050565b5f610dbb611217565b60200154905090565b5f60605f5f5f5f5f5f610dd5611217565b602001548910610df75760405162461bcd60e51b81526004016102a790611811565b5f610e00611217565b5f8b8152601f91909101602052604090208054600282015460038301546004840154600585015460068601546001870180549798506001600160a01b039096169660ff80831692610100900416908790610e599061188d565b80601f0160208091040260200160405190810160405280929190818152602001828054610e859061188d565b8015610ed05780601f10610ea757610100808354040283529160200191610ed0565b820191905f5260205f20905b815481529060010190602001808311610eb357829003601f168201915b505050505096509850985098509850985098509850985050919395975091939597565b5f5f5f5f610eff611217565b5f968752602101602090815260408088206001600160a01b039790971688529590525050509120805460019091015460ff8083169461010090930416925090565b5f610f49611217565b7fa49807205ce4d355092ef5a8a18f56e8913cf4a201fbe287825b095693c217755f908152602982016020908152604080832033845290915290205490915060ff16610fe25760405162461bcd60e51b815260206004820152602260248201527f476f7665726e616e63653a204f6e6c792061646d696e2063616e206578656375604482015261746560f01b60648201526084016102a7565b806020015482106110055760405162461bcd60e51b81526004016102a790611811565b5f828152601f820160205260409020600681015460ff16156110695760405162461bcd60e51b815260206004820152601c60248201527f476f7665726e616e63653a20416c72656164792065786563757465640000000060448201526064016102a7565b6006810154610100900460ff16156110c35760405162461bcd60e51b815260206004820152601d60248201527f476f7665726e616e63653a2050726f706f73616c2063616e63656c656400000060448201526064016102a7565b806005015443116111165760405162461bcd60e51b815260206004820152601c60248201527f476f7665726e616e63653a20566f74696e67206e6f7420656e6465640000000060448201526064016102a7565b5f8160030154826002015461112b919061185c565b905082602501548110156111815760405162461bcd60e51b815260206004820152601e60248201527f476f7665726e616e63653a2051756f72756d206e6f742072656163686564000060448201526064016102a7565b81600301548260020154116111d85760405162461bcd60e51b815260206004820152601d60248201527f476f7665726e616e63653a2050726f706f73616c20646566656174656400000060448201526064016102a7565b60068201805460ff1916600117905560405184907f712ae1383f79ac853f8d882153778e0260ef8f03b504e2866e0593e04d2b291f905f90a250505050565b7f7584c7413a623a30d701855d65da80b54e1c52170430bfee44c188cbe942679e90565b611243611217565b602a015460ff16156112a15760405162461bcd60e51b815260206004820152602160248201527f4c696241707053746f726167653a20436f6e74726163742069732070617573656044820152601960fa1b60648201526084016102a7565b565b5f6112ac611217565b9050826001600160a01b0316846001600160a01b0316141580156112cf57505f82115b1561140d576001600160a01b03841615611377576001600160a01b0384165f9081526027820160205260408120549063ffffffff821661130f575f61134c565b6001600160a01b0386165f908152602884016020526040812090611334600185611a00565b63ffffffff1681526020019081526020015f20600101545b90505f84821161135c575f611366565b61136685836119ed565b90506113738784836114ad565b5050505b6001600160a01b0383161561140d576001600160a01b0383165f9081526027820160205260408120549063ffffffff82166113b2575f6113ef565b6001600160a01b0385165f9081526028840160205260408120906113d7600185611a00565b63ffffffff1681526020019081526020015f20600101545b90505f6113fc858361185c565b90506114098684836114ad565b5050505b50505050565b5f61141c611217565b7fa49807205ce4d355092ef5a8a18f56e8913cf4a201fbe287825b095693c217755f908152602982016020908152604080832033845290915290205490915060ff166114aa5760405162461bcd60e51b815260206004820152601c60248201527f4c696241707053746f726167653a204d7573742062652061646d696e0000000060448201526064016102a7565b50565b5f6114b6611217565b90504363ffffffff84161580159061151057506001600160a01b0385165f908152602883016020526040812063ffffffff8316916114f5600188611a00565b63ffffffff908116825260208201929092526040015f205416145b15611559576001600160a01b0385165f9081526028830160205260408120849161153b600188611a00565b63ffffffff16815260208101919091526040015f20600101556115de565b60408051808201825263ffffffff838116825260208083018781526001600160a01b038a165f9081526028880183528581208a851682529092529390209151825463ffffffff1916911617815590516001918201556115b9908590611a1c565b6001600160a01b0386165f908152602784016020526040902063ffffffff9190911690555b5050505050565b5f5f604083850312156115f6575f5ffd5b823591506020830135801515811461160c575f5ffd5b809150509250929050565b5f60208284031215611627575f5ffd5b5035919050565b80356001600160a01b0381168114611644575f5ffd5b919050565b5f60208284031215611659575f5ffd5b6116628261162e565b9392505050565b5f5f5f5f6080858703121561167c575f5ffd5b5050823594602084013594506040840135936060013592509050565b634e487b7160e01b5f52604160045260245ffd5b5f602082840312156116bc575f5ffd5b813567ffffffffffffffff8111156116d2575f5ffd5b8201601f810184136116e2575f5ffd5b803567ffffffffffffffff8111156116fc576116fc611698565b604051601f8201601f19908116603f0116810167ffffffffffffffff8111828210171561172b5761172b611698565b604052818152828201602001861015611742575f5ffd5b816020840160208301375f91810160200191909152949350505050565b5f81518084528060208401602086015e5f602082860101526020601f19601f83011685010191505092915050565b6001600160a01b0389168152610100602082018190525f906117b19083018a61175f565b6040830198909852506060810195909552608085019390935260a0840191909152151560c0830152151560e09091015292915050565b5f5f604083850312156117f8575f5ffd5b823591506118086020840161162e565b90509250929050565b6020808252601c908201527f476f7665726e616e63653a20496e76616c69642070726f706f73616c00000000604082015260600190565b634e487b7160e01b5f52601160045260245ffd5b8082018082111561186f5761186f611848565b92915050565b5f6001820161188657611886611848565b5060010190565b600181811c908216806118a157607f821691505b6020821081036118bf57634e487b7160e01b5f52602260045260245ffd5b50919050565b601f82111561190957805f5260205f20601f840160051c810160208510156118ea5750805b601f840160051c820191505b818110156115de575f81556001016118f6565b505050565b815167ffffffffffffffff81111561192857611928611698565b61193c81611936845461188d565b846118c5565b6020601f82116001811461196e575f83156119575750848201515b5f19600385901b1c1916600184901b1784556115de565b5f84815260208120601f198516915b8281101561199d578785015182556020948501946001909201910161197d565b50848210156119ba57868401515f19600387901b60f8161c191681555b50505050600190811b01905550565b606081525f6119db606083018661175f565b60208301949094525060400152919050565b8181038181111561186f5761186f611848565b63ffffffff828116828216039081111561186f5761186f611848565b63ffffffff818116838216019081111561186f5761186f61184856fea264697066735822122089f9ba007f27d61273a53ad2a1b1164645a3d437a5afbd69ed2159de5964313f64736f6c634300081e0033",
  "linkReferences": {},
  "deployedLinkReferences": {},
  "immutableReferences": {},
  "inputSourceName": "project/contracts/facets/GovernanceFacet.sol",
  "buildInfoId": "solc-0_8_30-b6aefdcd2c2c791ebaaf90fe82232cc6b8631c3d"
}