{
  "_format": "hh3-artifact-1",
  "contractName": "ProofTokenFacet",
  "sourceName": "contracts/facets/ProofTokenFacet.sol",
  "abi": [
    {
      "anonymous": false,
      "inputs": [
        {
          "indexed": true,
          "internalType": "address",
          "name": "owner",
          "type": "address"
        },
        {
          "indexed": true,
          "internalType": "address",
          "name": "spender",
          "type": "address"
        },
        {
          "indexed": false,
          "internalType": "uint256",
          "name": "value",
          "type": "uint256"
        }
      ],
      "name": "Approval",
      "type": "event"
    },
    {
      "anonymous": false,
      "inputs": [
        {
          "indexed": true,
          "internalType": "address",
          "name": "user",
          "type": "address"
        },
        {
          "indexed": false,
          "internalType": "uint256",
          "name": "amount",
          "type": "uint256"
        },
        {
          "indexed": false,
          "internalType": "uint256",
          "name": "btlStaked",
          "type": "uint256"
        }
      ],
      "name": "ProofMinted",
      "type": "event"
    },
    {
      "anonymous": false,
      "inputs": [
        {
          "indexed": true,
          "internalType": "address",
          "name": "user",
          "type": "address"
        },
        {
          "indexed": false,
          "internalType": "uint256",
          "name": "proofAmount",
          "type": "uint256"
        },
        {
          "indexed": false,
          "internalType": "uint256",
          "name": "usdcAmount",
          "type": "uint256"
        }
      ],
      "name": "ProofRedeemed",
      "type": "event"
    },
    {
      "anonymous": false,
      "inputs": [
        {
          "indexed": true,
          "internalType": "address",
          "name": "from",
          "type": "address"
        },
        {
          "indexed": true,
          "internalType": "address",
          "name": "to",
          "type": "address"
        },
        {
          "indexed": false,
          "internalType": "uint256",
          "name": "value",
          "type": "uint256"
        }
      ],
      "name": "Transfer",
      "type": "event"
    },
    {
      "inputs": [
        {
          "internalType": "address",
          "name": "owner",
          "type": "address"
        },
        {
          "internalType": "address",
          "name": "spender",
          "type": "address"
        }
      ],
      "name": "proofAllowance",
      "outputs": [
        {
          "internalType": "uint256",
          "name": "",
          "type": "uint256"
        }
      ],
      "stateMutability": "view",
      "type": "function"
    },
    {
      "inputs": [
        {
          "internalType": "address",
          "name": "spender",
          "type": "address"
        },
        {
          "internalType": "uint256",
          "name": "amount",
          "type": "uint256"
        }
      ],
      "name": "proofApprove",
      "outputs": [
        {
          "internalType": "bool",
          "name": "",
          "type": "bool"
        }
      ],
      "stateMutability": "nonpayable",
      "type": "function"
    },
    {
      "inputs": [
        {
          "internalType": "address",
          "name": "account",
          "type": "address"
        }
      ],
      "name": "proofBalanceOf",
      "outputs": [
        {
          "internalType": "uint256",
          "name": "",
          "type": "uint256"
        }
      ],
      "stateMutability": "view",
      "type": "function"
    },
    {
      "inputs": [
        {
          "internalType": "uint256",
          "name": "amount",
          "type": "uint256"
        }
      ],
      "name": "proofBurn",
      "outputs": [],
      "stateMutability": "nonpayable",
      "type": "function"
    },
    {
      "inputs": [],
      "name": "proofDecimals",
      "outputs": [
        {
          "internalType": "uint8",
          "name": "",
          "type": "uint8"
        }
      ],
      "stateMutability": "pure",
      "type": "function"
    },
    {
      "inputs": [
        {
          "internalType": "address",
          "name": "spender",
          "type": "address"
        },
        {
          "internalType": "uint256",
          "name": "subtractedValue",
          "type": "uint256"
        }
      ],
      "name": "proofDecreaseAllowance",
      "outputs": [
        {
          "internalType": "bool",
          "name": "",
          "type": "bool"
        }
      ],
      "stateMutability": "nonpayable",
      "type": "function"
    },
    {
      "inputs": [],
      "name": "proofGetCollateralizationRatio",
      "outputs": [
        {
          "internalType": "uint256",
          "name": "",
          "type": "uint256"
        }
      ],
      "stateMutability": "view",
      "type": "function"
    },
    {
      "inputs": [
        {
          "internalType": "address",
          "name": "spender",
          "type": "address"
        },
        {
          "internalType": "uint256",
          "name": "addedValue",
          "type": "uint256"
        }
      ],
      "name": "proofIncreaseAllowance",
      "outputs": [
        {
          "internalType": "bool",
          "name": "",
          "type": "bool"
        }
      ],
      "stateMutability": "nonpayable",
      "type": "function"
    },
    {
      "inputs": [],
      "name": "proofIsSystemHealthy",
      "outputs": [
        {
          "internalType": "bool",
          "name": "",
          "type": "bool"
        }
      ],
      "stateMutability": "view",
      "type": "function"
    },
    {
      "inputs": [
        {
          "internalType": "address",
          "name": "to",
          "type": "address"
        },
        {
          "internalType": "uint256",
          "name": "amount",
          "type": "uint256"
        }
      ],
      "name": "proofMint",
      "outputs": [],
      "stateMutability": "nonpayable",
      "type": "function"
    },
    {
      "inputs": [],
      "name": "proofName",
      "outputs": [
        {
          "internalType": "string",
          "name": "",
          "type": "string"
        }
      ],
      "stateMutability": "view",
      "type": "function"
    },
    {
      "inputs": [],
      "name": "proofSymbol",
      "outputs": [
        {
          "internalType": "string",
          "name": "",
          "type": "string"
        }
      ],
      "stateMutability": "view",
      "type": "function"
    },
    {
      "inputs": [],
      "name": "proofTotalSupply",
      "outputs": [
        {
          "internalType": "uint256",
          "name": "",
          "type": "uint256"
        }
      ],
      "stateMutability": "view",
      "type": "function"
    },
    {
      "inputs": [
        {
          "internalType": "address",
          "name": "to",
          "type": "address"
        },
        {
          "internalType": "uint256",
          "name": "amount",
          "type": "uint256"
        }
      ],
      "name": "proofTransfer",
      "outputs": [
        {
          "internalType": "bool",
          "name": "",
          "type": "bool"
        }
      ],
      "stateMutability": "nonpayable",
      "type": "function"
    },
    {
      "inputs": [
        {
          "internalType": "address",
          "name": "from",
          "type": "address"
        },
        {
          "internalType": "address",
          "name": "to",
          "type": "address"
        },
        {
          "internalType": "uint256",
          "name": "amount",
          "type": "uint256"
        }
      ],
      "name": "proofTransferFrom",
      "outputs": [
        {
          "internalType": "bool",
          "name": "",
          "type": "bool"
        }
      ],
      "stateMutability": "nonpayable",
      "type": "function"
    },
    {
      "inputs": [
        {
          "internalType": "uint256",
          "name": "proofAmount",
          "type": "uint256"
        }
      ],
      "name": "redeemProofForUSDC",
      "outputs": [],
      "stateMutability": "nonpayable",
      "type": "function"
    }
  ],
  "bytecode": "0x6080604052348015600e575f5ffd5b50610f9e8061001c5f395ff3fe608060405234801561000f575f5ffd5b50600436106100fb575f3560e01c8063865b6e9f11610093578063c1d42d1711610063578063c1d42d1714610287578063cad4ad101461029a578063cd293b6f146102a2578063feb7c11e146102aa575f5ffd5b8063865b6e9f14610212578063ae10303f14610225578063b0cd3ef61461022d578063b42d8c2114610274575f5ffd5b80633604aa51116100ce5780633604aa511461015e578063762e098d146101c357806377290cab146101d8578063823d289b146101eb575f5ffd5b80630fb59a4c146100ff5780631b16e8cf1461012757806327d2fce51461013a5780632bce8b2a1461014f575b5f5ffd5b61011261010d366004610d4a565b6102bd565b60405190151581526020015b60405180910390f35b610112610135366004610d4a565b6103bc565b61014261043a565b60405161011e9190610d72565b6040516006815260200161011e565b6101b561016c366004610da7565b6001600160a01b039182165f9081527f7584c7413a623a30d701855d65da80b54e1c52170430bfee44c188cbe94267aa6020908152604080832093909416825291909152205490565b60405190815260200161011e565b6101d66101d1366004610dd8565b6104d9565b005b6101126101e6366004610d4a565b610567565b7f7584c7413a623a30d701855d65da80b54e1c52170430bfee44c188cbe94267a8546101b5565b6101d6610220366004610dd8565b610584565b6101b56106fb565b6101b561023b366004610def565b6001600160a01b03165f9081527f7584c7413a623a30d701855d65da80b54e1c52170430bfee44c188cbe94267a9602052604090205490565b610112610282366004610d4a565b610776565b6101d6610295366004610d4a565b61081e565b6101426109de565b6101126109fc565b6101126102b8366004610e0f565b610a81565b5f5f516020610f495f395f51905f526102d4610b56565b335f908152600c8201602090815260408083206001600160a01b03881684529091529020548381101561034e5760405162461bcd60e51b815260206004820152601b60248201527f50524f4f463a20416c6c6f77616e63652062656c6f77207a65726f000000000060448201526064015b60405180910390fd5b335f818152600c8401602090815260408083206001600160a01b038a16808552908352928190208886039081905590519081529192917f8c5be1e5ebec7d5bd14f71427d1e84f3dd0314c0f7b2291e5b200ac8c7c3b925910160405180910390a36001925050505b92915050565b5f5f516020610f495f395f51905f526103d3610b56565b335f818152600c8301602090815260408083206001600160a01b03891680855290835292819020879055518681529192917f8c5be1e5ebec7d5bd14f71427d1e84f3dd0314c0f7b2291e5b200ac8c7c3b92591015b60405180910390a35060019392505050565b60605f516020610f495f395f51905f52600701805461045890610e49565b80601f016020809104026020016040519081016040528092919081815260200182805461048490610e49565b80156104cf5780601f106104a6576101008083540402835291602001916104cf565b820191905f5260205f20905b8154815290600101906020018083116104b257829003601f168201915b5050505050905090565b5f516020610f495f395f51905f526104ef610b56565b335f908152600b8201602052604090205482111561051f5760405162461bcd60e51b815260040161034590610e81565b335f818152600b83016020908152604080832080548790039055600a850180548790039055518581529192915f516020610f295f395f51905f52910160405180910390a35050565b5f610570610b56565b61057b338484610bd4565b50600192915050565b5f516020610f495f395f51905f5261059a610b56565b335f908152600b820160205260409020548211156105ca5760405162461bcd60e51b815260040161034590610e81565b5f60646105d8846065610ecc565b6105e29190610ee3565b905080826019015410156106425760405162461bcd60e51b815260206004820152602160248201527f50524f4f463a20496e73756666696369656e74207472656173757279205553446044820152604360f81b6064820152608401610345565b335f908152600b83016020526040812080548590039055600a830180548590039055603283018054859290610678908490610f02565b9250508190555080826019015f8282546106929190610f15565b9091555050604080518481526020810183905233917f8cd57e68faba420af413b072437b4f4d287986fe7c35673782434ccfb2df3a67910160405180910390a26040518381525f9033905f516020610f295f395f51905f529060200160405180910390a3505050565b7f7584c7413a623a30d701855d65da80b54e1c52170430bfee44c188cbe94267a8545f905f516020610f495f395f51905f5290820361073c575f1991505090565b5f81601a015482601901546107519190610f02565b600a83015490915061076561271083610ecc565b61076f9190610ee3565b9250505090565b5f5f516020610f495f395f51905f5261078d610b56565b335f908152600c8201602090815260408083206001600160a01b0388168452909152812080548592906107c1908490610f02565b9091555050335f818152600c8301602090815260408083206001600160a01b038916808552908352928190205490519081529192917f8c5be1e5ebec7d5bd14f71427d1e84f3dd0314c0f7b2291e5b200ac8c7c3b9259101610428565b335f9081527f99dc07a1da7c2c8b9d01a882532da5ca861f9326070b5c9d34c831d19e0fb52e60205260409020545f516020610f495f395f51905f529060ff166108aa5760405162461bcd60e51b815260206004820152601d60248201527f50524f4f463a204e6f7420617574686f72697a656420746f206d696e740000006044820152606401610345565b6108b2610b56565b5f8282600a01546108c39190610f02565b90505f61271083601b0154836108d99190610ecc565b6108e39190610ee3565b90508083601a015484601901546108fa9190610f02565b10156109485760405162461bcd60e51b815260206004820152601e60248201527f50524f4f463a20496e73756666696369656e7420636f6c6c61746572616c00006044820152606401610345565b6001600160a01b0385165f908152600b8401602052604081208054869290610971908490610f02565b925050819055508383600a015f82825461098b9190610f02565b9250508190555083836031015f8282546109a59190610f02565b90915550506040518481526001600160a01b038616905f905f516020610f295f395f51905f529060200160405180910390a35050505050565b60605f516020610f495f395f51905f52600801805461045890610e49565b7f7584c7413a623a30d701855d65da80b54e1c52170430bfee44c188cbe94267a8545f905f516020610f495f395f51905f52908203610a3d57600191505090565b5f81601a01548260190154610a529190610f02565b90505f61271083601b015484600a0154610a6c9190610ecc565b610a769190610ee3565b909110159392505050565b5f5f516020610f495f395f51905f52610a98610b56565b6001600160a01b0385165f908152600c82016020908152604080832033845290915290205483811015610b0d5760405162461bcd60e51b815260206004820152601d60248201527f50524f4f463a20496e73756666696369656e7420616c6c6f77616e63650000006044820152606401610345565b5f198114610b3f576001600160a01b0386165f908152600c830160209081526040808320338452909152902084820390555b610b4a868686610bd4565b50600195945050505050565b7f7584c7413a623a30d701855d65da80b54e1c52170430bfee44c188cbe94267c85460ff1615610bd25760405162461bcd60e51b815260206004820152602160248201527f4c696241707053746f726167653a20436f6e74726163742069732070617573656044820152601960fa1b6064820152608401610345565b565b5f516020610f495f395f51905f526001600160a01b038416610c425760405162461bcd60e51b815260206004820152602160248201527f50524f4f463a205472616e736665722066726f6d207a65726f206164647265736044820152607360f81b6064820152608401610345565b6001600160a01b038316610c985760405162461bcd60e51b815260206004820152601f60248201527f50524f4f463a205472616e7366657220746f207a65726f2061646472657373006044820152606401610345565b6001600160a01b0384165f908152600b82016020526040902054821115610cd15760405162461bcd60e51b815260040161034590610e81565b6001600160a01b038085165f818152600b84016020526040808220805487900390559286168082529083902080548601905591515f516020610f295f395f51905f5290610d219086815260200190565b60405180910390a350505050565b80356001600160a01b0381168114610d45575f5ffd5b919050565b5f5f60408385031215610d5b575f5ffd5b610d6483610d2f565b946020939093013593505050565b602081525f82518060208401528060208501604085015e5f604082850101526040601f19601f83011684010191505092915050565b5f5f60408385031215610db8575f5ffd5b610dc183610d2f565b9150610dcf60208401610d2f565b90509250929050565b5f60208284031215610de8575f5ffd5b5035919050565b5f60208284031215610dff575f5ffd5b610e0882610d2f565b9392505050565b5f5f5f60608486031215610e21575f5ffd5b610e2a84610d2f565b9250610e3860208501610d2f565b929592945050506040919091013590565b600181811c90821680610e5d57607f821691505b602082108103610e7b57634e487b7160e01b5f52602260045260245ffd5b50919050565b6020808252601b908201527f50524f4f463a20496e73756666696369656e742062616c616e63650000000000604082015260600190565b634e487b7160e01b5f52601160045260245ffd5b80820281158282048414176103b6576103b6610eb8565b5f82610efd57634e487b7160e01b5f52601260045260245ffd5b500490565b808201808211156103b6576103b6610eb8565b818103818111156103b6576103b6610eb856feddf252ad1be2c89b69c2b068fc378daa952ba7f163c4a11628f55a4df523b3ef7584c7413a623a30d701855d65da80b54e1c52170430bfee44c188cbe942679ea26469706673582212202040b9c2a6f140679353f48efcbaa17e7f06a4db54318dc1918139f14268e80064736f6c634300081e0033",
  "linkReferences": {},
  "deployedLinkReferences": {},
  "immutableReferences": {},
  "inputSourceName": "project/contracts/facets/ProofTokenFacet.sol",
  "buildInfoId": "solc-0_8_30-146d97fb8bb3a7da0e36372c43755df4a5e3fdd5"
}