{
  "_format": "hh3-artifact-1",
  "contractName": "StakingFacet",
  "sourceName": "contracts/facets/StakingFacet.sol",
  "abi": [
    {
      "anonymous": false,
      "inputs": [
        {
          "indexed": false,
          "internalType": "uint256",
          "name": "newSlope",
          "type": "uint256"
        }
      ],
      "name": "BondingCurveUpdated",
      "type": "event"
    },
    {
      "anonymous": false,
      "inputs": [
        {
          "indexed": true,
          "internalType": "address",
          "name": "user",
          "type": "address"
        },
        {
          "indexed": false,
          "internalType": "uint256",
          "name": "btlAmount",
          "type": "uint256"
        },
        {
          "indexed": false,
          "internalType": "uint256",
          "name": "proofMinted",
          "type": "uint256"
        }
      ],
      "name": "Staked",
      "type": "event"
    },
    {
      "anonymous": false,
      "inputs": [
        {
          "indexed": true,
          "internalType": "address",
          "name": "user",
          "type": "address"
        },
        {
          "indexed": false,
          "internalType": "uint256",
          "name": "amount",
          "type": "uint256"
        },
        {
          "indexed": false,
          "internalType": "uint256",
          "name": "unlockTime",
          "type": "uint256"
        }
      ],
      "name": "UnstakeRequested",
      "type": "event"
    },
    {
      "anonymous": false,
      "inputs": [
        {
          "indexed": true,
          "internalType": "address",
          "name": "user",
          "type": "address"
        },
        {
          "indexed": false,
          "internalType": "uint256",
          "name": "btlAmount",
          "type": "uint256"
        }
      ],
      "name": "Unstaked",
      "type": "event"
    },
    {
      "inputs": [
        {
          "internalType": "uint256",
          "name": "btlAmount",
          "type": "uint256"
        }
      ],
      "name": "calculateProofMint",
      "outputs": [
        {
          "internalType": "uint256",
          "name": "",
          "type": "uint256"
        }
      ],
      "stateMutability": "view",
      "type": "function"
    },
    {
      "inputs": [
        {
          "internalType": "address",
          "name": "user",
          "type": "address"
        }
      ],
      "name": "canUnstake",
      "outputs": [
        {
          "internalType": "bool",
          "name": "canUnstakeNow",
          "type": "bool"
        },
        {
          "internalType": "uint256",
          "name": "timeRemaining",
          "type": "uint256"
        }
      ],
      "stateMutability": "view",
      "type": "function"
    },
    {
      "inputs": [
        {
          "internalType": "uint256",
          "name": "btlAmount",
          "type": "uint256"
        }
      ],
      "name": "executeUnstake",
      "outputs": [],
      "stateMutability": "nonpayable",
      "type": "function"
    },
    {
      "inputs": [
        {
          "internalType": "address",
          "name": "user",
          "type": "address"
        }
      ],
      "name": "getStakeInfo",
      "outputs": [
        {
          "internalType": "uint256",
          "name": "amount",
          "type": "uint256"
        },
        {
          "internalType": "uint256",
          "name": "stakedAt",
          "type": "uint256"
        },
        {
          "internalType": "uint256",
          "name": "proofMinted",
          "type": "uint256"
        }
      ],
      "stateMutability": "view",
      "type": "function"
    },
    {
      "inputs": [],
      "name": "getStakingAPY",
      "outputs": [
        {
          "internalType": "uint256",
          "name": "",
          "type": "uint256"
        }
      ],
      "stateMutability": "view",
      "type": "function"
    },
    {
      "inputs": [],
      "name": "getTotalStaked",
      "outputs": [
        {
          "internalType": "uint256",
          "name": "",
          "type": "uint256"
        }
      ],
      "stateMutability": "view",
      "type": "function"
    },
    {
      "inputs": [],
      "name": "getUnstakeCooldown",
      "outputs": [
        {
          "internalType": "uint256",
          "name": "",
          "type": "uint256"
        }
      ],
      "stateMutability": "view",
      "type": "function"
    },
    {
      "inputs": [
        {
          "internalType": "uint256",
          "name": "btlAmount",
          "type": "uint256"
        }
      ],
      "name": "requestUnstake",
      "outputs": [],
      "stateMutability": "nonpayable",
      "type": "function"
    },
    {
      "inputs": [
        {
          "internalType": "uint256",
          "name": "apyBasisPoints",
          "type": "uint256"
        }
      ],
      "name": "setStakingAPY",
      "outputs": [],
      "stateMutability": "nonpayable",
      "type": "function"
    },
    {
      "inputs": [
        {
          "internalType": "bool",
          "name": "paused",
          "type": "bool"
        }
      ],
      "name": "setStakingPaused",
      "outputs": [],
      "stateMutability": "nonpayable",
      "type": "function"
    },
    {
      "inputs": [
        {
          "internalType": "uint256",
          "name": "cooldownSeconds",
          "type": "uint256"
        }
      ],
      "name": "setUnstakeCooldown",
      "outputs": [],
      "stateMutability": "nonpayable",
      "type": "function"
    },
    {
      "inputs": [
        {
          "internalType": "uint256",
          "name": "btlAmount",
          "type": "uint256"
        }
      ],
      "name": "stake",
      "outputs": [
        {
          "internalType": "uint256",
          "name": "proofMinted",
          "type": "uint256"
        }
      ],
      "stateMutability": "nonpayable",
      "type": "function"
    },
    {
      "inputs": [
        {
          "internalType": "uint256",
          "name": "newSlope",
          "type": "uint256"
        }
      ],
      "name": "updateBondingCurve",
      "outputs": [],
      "stateMutability": "nonpayable",
      "type": "function"
    }
  ],
  "bytecode": "0x6080604052348015600e575f5ffd5b50610ecc8061001c5f395ff3fe608060405234801561000f575f5ffd5b50600436106100cb575f3560e01c8063507e5df311610088578063a694fc3a11610063578063a694fc3a146101de578063bb88a768146101f1578063c345315314610204578063f9d4c1ac14610273575f5ffd5b8063507e5df31461017a57806385f4498b146101a1578063a3158b53146101cb575f5ffd5b80630917e776146100cf57806315b31bbb146101055780631cf428b61461011a578063230957211461014157806325d3f8cb14610154578063335de0fc14610167575b5f5ffd5b7f7584c7413a623a30d701855d65da80b54e1c52170430bfee44c188cbe94267ac545b6040519081526020015b60405180910390f35b610118610113366004610d5a565b610286565b005b7f7584c7413a623a30d701855d65da80b54e1c52170430bfee44c188cbe94267ae546100f2565b61011861014f366004610d80565b6102c7565b610118610162366004610d80565b6103ca565b610118610175366004610d80565b610440565b7f7584c7413a623a30d701855d65da80b54e1c52170430bfee44c188cbe94267ad546100f2565b6101b46101af366004610d97565b61052c565b6040805192151583526020830191909152016100fc565b6101186101d9366004610d80565b6105c6565b6100f26101ec366004610d80565b610654565b6100f26101ff366004610d80565b610911565b610258610212366004610d97565b6001600160a01b03165f9081527f7584c7413a623a30d701855d65da80b54e1c52170430bfee44c188cbe94267ab60205260409020805460018201546002909201549092565b604080519384526020840192909252908201526060016100fc565b610118610281366004610d80565b6109d6565b61028e610bbb565b7f7584c7413a623a30d701855d65da80b54e1c52170430bfee44c188cbe94267c880549115156101000261ff0019909216919091179055565b5f516020610e775f395f51905f526102dd610c4a565b5f82116103315760405162461bcd60e51b815260206004820152601c60248201527f5374616b696e673a2043616e6e6f7420756e7374616b65207a65726f0000000060448201526064015b60405180910390fd5b335f908152600d82016020526040902080548311156103625760405162461bcd60e51b815260040161032890610dbd565b335f90815260118301602052604081204290819055601084015461038591610e14565b604080518681526020810183905291925033917f57e41df54512c76148b5ba9b643d149752b0d35e493b969bd017d0a3fe5228cf91015b60405180910390a250505050565b6103d2610bbb565b61138881111561041c5760405162461bcd60e51b81526020600482015260156024820152740a6e8c2d6d2dcce744082a0b240e8dede40d0d2ced605b1b6044820152606401610328565b7f7584c7413a623a30d701855d65da80b54e1c52170430bfee44c188cbe94267ad55565b610448610bbb565b5f8111801561045957506127108111155b61049e5760405162461bcd60e51b81526020600482015260166024820152755374616b696e673a20496e76616c696420736c6f706560501b6044820152606401610328565b7f7584c7413a623a30d701855d65da80b54e1c52170430bfee44c188cbe94267c9819055427f7584c7413a623a30d701855d65da80b54e1c52170430bfee44c188cbe94267ca556040805182815290515f516020610e775f395f51905f52917fcd1179991e4e5916e78d046785553c30a19abadbb07b5a4c4d51282470e82dff919081900360200190a15050565b6001600160a01b0381165f9081527f7584c7413a623a30d701855d65da80b54e1c52170430bfee44c188cbe94267af602052604081205481905f516020610e775f395f51905f529080830361058757505f9485945092505050565b5f8260100154826105989190610e14565b90508042106105af57506001955f95509350505050565b5f6105ba4283610e2d565b94509450505050915091565b6105ce610bbb565b6201518081101580156105e4575062278d008111155b6106305760405162461bcd60e51b815260206004820152601960248201527f5374616b696e673a20496e76616c696420636f6f6c646f776e000000000000006044820152606401610328565b7f7584c7413a623a30d701855d65da80b54e1c52170430bfee44c188cbe94267ae55565b5f5f516020610e775f395f51905f5261066b610c4a565b602a810154610100900460ff16156106c55760405162461bcd60e51b815260206004820152601a60248201527f5374616b696e673a205374616b696e67206973207061757365640000000000006044820152606401610328565b5f83116107145760405162461bcd60e51b815260206004820152601a60248201527f5374616b696e673a2043616e6e6f74207374616b65207a65726f0000000000006044820152606401610328565b335f90815260048201602052604090205483111561077f5760405162461bcd60e51b815260206004820152602260248201527f5374616b696e673a20496e73756666696369656e74203242544c2062616c616e604482015261636560f01b6064820152608401610328565b61078883610911565b91505f82116107d95760405162461bcd60e51b815260206004820152601f60248201527f5374616b696e673a2050524f4f4620616d6f756e7420746f6f20736d616c6c006044820152606401610328565b335f9081526004820160205260408082208054869003905530825281208054859290610806908490610e14565b9091555050335f908152600d82016020526040812080549091859183919061082f908490610e14565b90915550504260018201556002810180548491905f90610850908490610e14565b9091555050426003820155600e820180548591905f90610871908490610e14565b9091555050335f908152600b8301602052604081208054859290610896908490610e14565b925050819055508282600a015f8282546108b09190610e14565b9250508190555082826031015f8282546108ca9190610e14565b9091555050604080518581526020810185905233917f1449c6dd7851abc30abf37f57715f492010519147cc2652fbc38202c18a6ee90910160405180910390a25050919050565b7f7584c7413a623a30d701855d65da80b54e1c52170430bfee44c188cbe94267c9545f905f516020610e775f395f51905f52908290612710906109549086610e40565b61095e9190610e57565b90505f610969610cc8565b90505f5f84601c01541161097f57612710610985565b83601c01545b90505f8161099561271085610e40565b61099f9190610e57565b90505f6127106109af8387610e40565b6109b99190610e57565b90506109ca64e8d4a5100082610e57565b98975050505050505050565b5f516020610e775f395f51905f526109ec610c4a565b5f8211610a3b5760405162461bcd60e51b815260206004820152601c60248201527f5374616b696e673a2043616e6e6f7420756e7374616b65207a65726f000000006044820152606401610328565b335f90815260118201602052604090205480610aa35760405162461bcd60e51b815260206004820152602160248201527f5374616b696e673a204e6f20756e7374616b65207265717565737420666f756e6044820152601960fa1b6064820152608401610328565b6010820154610ab29082610e14565b421015610b015760405162461bcd60e51b815260206004820152601c60248201527f5374616b696e673a20436f6f6c646f776e206e6f7420706173736564000000006044820152606401610328565b335f908152600d8301602052604090208054841115610b325760405162461bcd60e51b815260040161032890610dbd565b80548490038155600e830180548590039055305f9081526004840160205260408082208054879003905533825281208054869290610b71908490610e14565b9091555050335f81815260118501602052604080822091909155517f0f5bb82176feb1b5e747e28471aa92156a04d9f3ab9f45f28e2d704232b93f75906103bc9087815260200190565b335f9081527f99dc07a1da7c2c8b9d01a882532da5ca861f9326070b5c9d34c831d19e0fb52e60205260409020545f516020610e775f395f51905f529060ff16610c475760405162461bcd60e51b815260206004820152601c60248201527f4c696241707053746f726167653a204d7573742062652061646d696e000000006044820152606401610328565b50565b7f7584c7413a623a30d701855d65da80b54e1c52170430bfee44c188cbe94267c85460ff1615610cc65760405162461bcd60e51b815260206004820152602160248201527f4c696241707053746f726167653a20436f6e74726163742069732070617573656044820152601960fa1b6064820152608401610328565b565b7f7584c7413a623a30d701855d65da80b54e1c52170430bfee44c188cbe94267a8545f905f516020610e775f395f51905f52908203610d20575f81601c015411610d1457612710610d1a565b80601c01545b91505090565b5f81601a01548260190154610d359190610e14565b600a830154909150610d4961271083610e40565b610d539190610e57565b9250505090565b5f60208284031215610d6a575f5ffd5b81358015158114610d79575f5ffd5b9392505050565b5f60208284031215610d90575f5ffd5b5035919050565b5f60208284031215610da7575f5ffd5b81356001600160a01b0381168114610d79575f5ffd5b60208082526023908201527f5374616b696e673a20496e73756666696369656e74207374616b656420616d6f6040820152621d5b9d60ea1b606082015260800190565b634e487b7160e01b5f52601160045260245ffd5b80820180821115610e2757610e27610e00565b92915050565b81810381811115610e2757610e27610e00565b8082028115828204841417610e2757610e27610e00565b5f82610e7157634e487b7160e01b5f52601260045260245ffd5b50049056fe7584c7413a623a30d701855d65da80b54e1c52170430bfee44c188cbe942679ea2646970667358221220ff7d8ccf168acd00a8489865ccea82048fd9876d184e51554922e1ad8ee66ff964736f6c634300081e0033",
  "linkReferences": {},
  "deployedLinkReferences": {},
  "immutableReferences": {},
  "inputSourceName": "project/contracts/facets/StakingFacet.sol",
  "buildInfoId": "solc-0_8_30-48050c6ff171e192d5e2f3115c513f9d191b1f9c"
}