{
  "_format": "hh3-artifact-1",
  "contractName": "RewardsFacet",
  "sourceName": "contracts/facets/RewardsFacet.sol",
  "abi": [
    {
      "anonymous": false,
      "inputs": [
        {
          "indexed": true,
          "internalType": "address",
          "name": "user",
          "type": "address"
        },
        {
          "indexed": true,
          "internalType": "address",
          "name": "venue",
          "type": "address"
        },
        {
          "indexed": false,
          "internalType": "uint256",
          "name": "baseReward",
          "type": "uint256"
        },
        {
          "indexed": false,
          "internalType": "uint256",
          "name": "multiplier",
          "type": "uint256"
        },
        {
          "indexed": false,
          "internalType": "uint256",
          "name": "totalReward",
          "type": "uint256"
        }
      ],
      "name": "CheckInReward",
      "type": "event"
    },
    {
      "anonymous": false,
      "inputs": [
        {
          "indexed": true,
          "internalType": "address",
          "name": "referrer",
          "type": "address"
        },
        {
          "indexed": true,
          "internalType": "address",
          "name": "referee",
          "type": "address"
        },
        {
          "indexed": false,
          "internalType": "uint256",
          "name": "reward",
          "type": "uint256"
        }
      ],
      "name": "ReferralReward",
      "type": "event"
    },
    {
      "anonymous": false,
      "inputs": [
        {
          "indexed": true,
          "internalType": "address",
          "name": "venue",
          "type": "address"
        },
        {
          "indexed": false,
          "internalType": "uint256",
          "name": "multiplier",
          "type": "uint256"
        }
      ],
      "name": "VenueAdded",
      "type": "event"
    },
    {
      "anonymous": false,
      "inputs": [
        {
          "indexed": true,
          "internalType": "address",
          "name": "venue",
          "type": "address"
        },
        {
          "indexed": false,
          "internalType": "uint256",
          "name": "multiplier",
          "type": "uint256"
        },
        {
          "indexed": false,
          "internalType": "bool",
          "name": "isActive",
          "type": "bool"
        }
      ],
      "name": "VenueUpdated",
      "type": "event"
    },
    {
      "inputs": [
        {
          "internalType": "address",
          "name": "venue",
          "type": "address"
        },
        {
          "internalType": "uint256",
          "name": "multiplier",
          "type": "uint256"
        }
      ],
      "name": "addVenue",
      "outputs": [],
      "stateMutability": "nonpayable",
      "type": "function"
    },
    {
      "inputs": [
        {
          "internalType": "address",
          "name": "referrer",
          "type": "address"
        },
        {
          "internalType": "address",
          "name": "referee",
          "type": "address"
        }
      ],
      "name": "claimReferralReward",
      "outputs": [],
      "stateMutability": "nonpayable",
      "type": "function"
    },
    {
      "inputs": [
        {
          "internalType": "address",
          "name": "user",
          "type": "address"
        },
        {
          "internalType": "address",
          "name": "venue",
          "type": "address"
        },
        {
          "internalType": "uint256",
          "name": "groupSize",
          "type": "uint256"
        }
      ],
      "name": "estimateReward",
      "outputs": [
        {
          "internalType": "uint256",
          "name": "",
          "type": "uint256"
        }
      ],
      "stateMutability": "view",
      "type": "function"
    },
    {
      "inputs": [],
      "name": "getActiveVenues",
      "outputs": [
        {
          "internalType": "address[]",
          "name": "venues",
          "type": "address[]"
        }
      ],
      "stateMutability": "view",
      "type": "function"
    },
    {
      "inputs": [
        {
          "internalType": "address",
          "name": "user",
          "type": "address"
        }
      ],
      "name": "getCheckInsToday",
      "outputs": [
        {
          "internalType": "uint256",
          "name": "",
          "type": "uint256"
        }
      ],
      "stateMutability": "view",
      "type": "function"
    },
    {
      "inputs": [],
      "name": "getGlobalStats",
      "outputs": [
        {
          "internalType": "uint256",
          "name": "totalCheckIns",
          "type": "uint256"
        },
        {
          "internalType": "uint256",
          "name": "totalRewardsDistributed",
          "type": "uint256"
        },
        {
          "internalType": "uint256",
          "name": "totalProofMinted",
          "type": "uint256"
        },
        {
          "internalType": "uint256",
          "name": "totalProofRedeemed",
          "type": "uint256"
        }
      ],
      "stateMutability": "view",
      "type": "function"
    },
    {
      "inputs": [
        {
          "internalType": "address",
          "name": "user",
          "type": "address"
        }
      ],
      "name": "getRewardInfo",
      "outputs": [
        {
          "internalType": "uint256",
          "name": "totalEarned",
          "type": "uint256"
        },
        {
          "internalType": "uint256",
          "name": "lastCheckIn",
          "type": "uint256"
        },
        {
          "internalType": "uint256",
          "name": "checkInCount",
          "type": "uint256"
        },
        {
          "internalType": "uint256",
          "name": "referralCount",
          "type": "uint256"
        }
      ],
      "stateMutability": "view",
      "type": "function"
    },
    {
      "inputs": [
        {
          "internalType": "address",
          "name": "venue",
          "type": "address"
        }
      ],
      "name": "getVenueInfo",
      "outputs": [
        {
          "internalType": "bool",
          "name": "isActive",
          "type": "bool"
        },
        {
          "internalType": "uint256",
          "name": "multiplier",
          "type": "uint256"
        },
        {
          "internalType": "uint256",
          "name": "totalCheckIns",
          "type": "uint256"
        },
        {
          "internalType": "uint256",
          "name": "rewardsDistributed",
          "type": "uint256"
        }
      ],
      "stateMutability": "view",
      "type": "function"
    },
    {
      "inputs": [
        {
          "internalType": "address",
          "name": "user",
          "type": "address"
        },
        {
          "internalType": "address",
          "name": "venue",
          "type": "address"
        },
        {
          "internalType": "uint256",
          "name": "groupSize",
          "type": "uint256"
        },
        {
          "internalType": "bytes32",
          "name": "checkInHash",
          "type": "bytes32"
        }
      ],
      "name": "recordCheckIn",
      "outputs": [
        {
          "internalType": "uint256",
          "name": "rewardAmount",
          "type": "uint256"
        }
      ],
      "stateMutability": "nonpayable",
      "type": "function"
    },
    {
      "inputs": [
        {
          "internalType": "uint256",
          "name": "baseReward",
          "type": "uint256"
        }
      ],
      "name": "setBaseCheckInReward",
      "outputs": [],
      "stateMutability": "nonpayable",
      "type": "function"
    },
    {
      "inputs": [
        {
          "internalType": "uint256",
          "name": "multiplier",
          "type": "uint256"
        }
      ],
      "name": "setGroupMultiplier",
      "outputs": [],
      "stateMutability": "nonpayable",
      "type": "function"
    },
    {
      "inputs": [
        {
          "internalType": "uint256",
          "name": "maxCheckIns",
          "type": "uint256"
        }
      ],
      "name": "setMaxCheckInsPerDay",
      "outputs": [],
      "stateMutability": "nonpayable",
      "type": "function"
    },
    {
      "inputs": [
        {
          "internalType": "bool",
          "name": "paused",
          "type": "bool"
        }
      ],
      "name": "setRewardsPaused",
      "outputs": [],
      "stateMutability": "nonpayable",
      "type": "function"
    },
    {
      "inputs": [
        {
          "internalType": "address",
          "name": "venue",
          "type": "address"
        },
        {
          "internalType": "uint256",
          "name": "multiplier",
          "type": "uint256"
        },
        {
          "internalType": "bool",
          "name": "isActive",
          "type": "bool"
        }
      ],
      "name": "updateVenue",
      "outputs": [],
      "stateMutability": "nonpayable",
      "type": "function"
    }
  ],
  "bytecode": "0x6080604052348015600e575f5ffd5b506117358061001c5f395ff3fe608060405234801561000f575f5ffd5b50600436106100e5575f3560e01c806378b038471161008857806388d3e3a21161006357806388d3e3a214610310578063b471eb6714610323578063c83e2b0814610338578063cb17e2e21461034b575f5ffd5b806378b03847146102d75780637ceb052c146102ea578063880ff067146102fd575f5ffd5b80634e017530116100c35780634e0175301461020f5780636066e878146102245780636b4169c31461023757806371bf31c3146102c4575f5ffd5b806306032d74146100e95780630873eba81461016b578063241c00f8146101ee575b5f5ffd5b6101466100f7366004611441565b6001600160a01b03165f9081527f7584c7413a623a30d701855d65da80b54e1c52170430bfee44c188cbe94267b060205260409020805460018201546002830154600390930154919390929190565b6040805194855260208501939093529183015260608201526080015b60405180910390f35b6101cc610179366004611441565b6001600160a01b03165f9081527f7584c7413a623a30d701855d65da80b54e1c52170430bfee44c188cbe94267b56020526040902080546001820154600283015460039093015460ff9092169390929190565b6040805194151585526020850193909352918301526060820152608001610162565b6102016101fc366004611441565b61035e565b604051908152602001610162565b61022261021d366004611470565b6103aa565b005b610222610232366004611489565b6103ed565b7f7584c7413a623a30d701855d65da80b54e1c52170430bfee44c188cbe94267cd547f7584c7413a623a30d701855d65da80b54e1c52170430bfee44c188cbe94267ce547f7584c7413a623a30d701855d65da80b54e1c52170430bfee44c188cbe94267cf547f7584c7413a623a30d701855d65da80b54e1c52170430bfee44c188cbe94267d054610146565b6102226102d23660046114c2565b61055a565b6102226102e53660046114f3565b610755565b6102226102f83660046114f3565b6107d7565b61022261030b3660046114f3565b610867565b61020161031e36600461150a565b6108f2565b61032b610df7565b6040516101629190611549565b610201610346366004611594565b610f84565b6102226103593660046115ce565b610f98565b5f5f5160206116e05f395f51905f528161037b620151804261160a565b6001600160a01b039094165f908152602d90920160209081526040808420958452949052509190912054919050565b6103b26111a9565b7f7584c7413a623a30d701855d65da80b54e1c52170430bfee44c188cbe94267c88054911515620100000262ff000019909216919091179055565b335f9081527f1807e1b027eb0ae53bc1d446bde8a2337bd6526ad3d44b5d7ad63ca21242af1860205260409020545f5160206116e05f395f51905f529060ff168061047357507fa49807205ce4d355092ef5a8a18f56e8913cf4a201fbe287825b095693c217755f908152602982016020908152604080832033845290915290205460ff165b6104be5760405162461bcd60e51b815260206004820152601760248201527614995dd85c991cce88139bdd08185d5d1a1bdc9a5e9959604a1b60448201526064015b60405180910390fd5b603283101580156104d157506101f48311155b6104ed5760405162461bcd60e51b81526004016104b590611629565b6001600160a01b0384165f81815260178301602090815260409182902060018101879055805460ff19168615159081179091558251878152918201527fe85c459f17e2b11c14fb8a983e4f99060f273fa944dcf21f90e6ccbb298a5264910160405180910390a250505050565b5f5160206116e05f395f51905f52610570611238565b6105786112c4565b602a81015462010000900460ff16156105d35760405162461bcd60e51b815260206004820152601b60248201527f526577617264733a20526577617264732061726520706175736564000000000060448201526064016104b5565b6001600160a01b0382165f9081526012820160205260409020600201546106485760405162461bcd60e51b815260206004820152602360248201527f526577617264733a205265666572656520686173206e6f7420636865636b65646044820152621034b760e91b60648201526084016104b5565b5f6002826014015461065a919061160a565b6001600160a01b0385165f90815260128401602052604081206003018054929350906106858361166f565b90915550506001600160a01b0384165f908152601283016020526040812080548392906106b3908490611687565b90915550506001600160a01b0384165f908152600483016020526040812080548392906106e1908490611687565b9250508190555080826003015f8282546106fb9190611687565b92505081905550826001600160a01b0316846001600160a01b03167f53958b9c644a1d5529da7c36929d59417eb9a996f08e02a52632bfe20c92ef488360405161074791815260200190565b60405180910390a350505050565b61075d6111a9565b6001811015801561076f5750600a8111155b6107b35760405162461bcd60e51b81526020600482015260156024820152740526577617264733a204d75737420626520312d313605c1b60448201526064016104b5565b7f7584c7413a623a30d701855d65da80b54e1c52170430bfee44c188cbe94267b455565b6107df6111a9565b5f811180156107f75750683635c9adc5dea000008111155b6108435760405162461bcd60e51b815260206004820152601c60248201527f526577617264733a20496e76616c69642062617365207265776172640000000060448201526064016104b5565b7f7584c7413a623a30d701855d65da80b54e1c52170430bfee44c188cbe94267b255565b61086f6111a9565b60648110158015610882575061012c8111155b6108ce5760405162461bcd60e51b815260206004820152601960248201527f526577617264733a204d756c7469706c6965722031782d33780000000000000060448201526064016104b5565b7f7584c7413a623a30d701855d65da80b54e1c52170430bfee44c188cbe94267b355565b5f5f5160206116e05f395f51905f52610909611238565b6109116112c4565b602a81015462010000900460ff161561096c5760405162461bcd60e51b815260206004820152601b60248201527f526577617264733a20526577617264732061726520706175736564000000000060448201526064016104b5565b6001600160a01b0386166109ba5760405162461bcd60e51b81526020600482015260156024820152742932bbb0b932399d1024b73b30b634b2103ab9b2b960591b60448201526064016104b5565b6001600160a01b038516610a095760405162461bcd60e51b8152602060048201526016602482015275526577617264733a20496e76616c69642076656e756560501b60448201526064016104b5565b6001600160a01b0385165f90815260178201602052604090205460ff16610a725760405162461bcd60e51b815260206004820152601960248201527f526577617264733a2056656e7565206e6f74206163746976650000000000000060448201526064016104b5565b5f83815260138201602052604090205460ff1615610ade5760405162461bcd60e51b815260206004820152602360248201527f526577617264733a20436865636b2d696e20616c72656164792070726f6365736044820152621cd95960ea1b60648201526084016104b5565b5f8381526013820160205260408120805460ff19166001179055610b05620151804261160a565b60168301546001600160a01b0389165f908152602d85016020908152604080832085845290915290205491925011610b8e5760405162461bcd60e51b815260206004820152602660248201527f526577617264733a204d617820636865636b2d696e7320706572206461792072604482015265195858da195960d21b60648201526084016104b5565b6001600160a01b0387165f908152602d8301602090815260408083208484529091528120805491610bbe8361166f565b90915550506001600160a01b0387165f908152602e83016020526040902054439003610c3b5760405162461bcd60e51b815260206004820152602660248201527f526577617264733a20416c726561647920636865636b656420696e207468697360448201526520626c6f636b60d01b60648201526084016104b5565b6001600160a01b0387165f908152602e830160205260409020439055610c62878787611342565b6001600160a01b0388165f908152601284016020526040812080549295509185918391610c90908490611687565b9091555050426001820155600281018054905f610cac8361166f565b90915550506001600160a01b0387165f9081526017840160205260408120600201805491610cd98361166f565b90915550506001600160a01b0387165f90815260178401602052604081206003018054869290610d0a908490611687565b9091555050602f83018054905f610d208361166f565b919050555083836030015f828254610d389190611687565b90915550506001600160a01b0388165f90815260048401602052604081208054869290610d66908490611687565b9250508190555083836003015f828254610d809190611687565b909155505060148301546001600160a01b038881165f81815260178701602090815260409182902060010154825195865290850152830187905291908a16907fa4d41d0f3e654f1cd9f78d621046cc2461620696186f3d2b9a6914178dec0dc29060600160405180910390a3505050949350505050565b60605f5160206116e05f395f51905f525f805b6018830154811015610e7257826017015f846018018381548110610e3057610e306116a0565b5f9182526020808320909101546001600160a01b0316835282019290925260400190205460ff1615610e6a5781610e668161166f565b9250505b600101610e0a565b508067ffffffffffffffff811115610e8c57610e8c6116b4565b604051908082528060200260200182016040528015610eb5578160200160208202803683370190505b5092505f805b6018840154811015610f7d57836017015f856018018381548110610ee157610ee16116a0565b5f9182526020808320909101546001600160a01b0316835282019290925260400190205460ff1615610f7557836018018181548110610f2257610f226116a0565b905f5260205f20015f9054906101000a90046001600160a01b0316858381518110610f4f57610f4f6116a0565b6001600160a01b039092166020928302919091019091015281610f718161166f565b9250505b600101610ebb565b5050505090565b5f610f90848484611342565b949350505050565b335f9081527f1807e1b027eb0ae53bc1d446bde8a2337bd6526ad3d44b5d7ad63ca21242af1860205260409020545f5160206116e05f395f51905f529060ff168061101e57507fa49807205ce4d355092ef5a8a18f56e8913cf4a201fbe287825b095693c217755f908152602982016020908152604080832033845290915290205460ff165b6110645760405162461bcd60e51b815260206004820152601760248201527614995dd85c991cce88139bdd08185d5d1a1bdc9a5e9959604a1b60448201526064016104b5565b6001600160a01b0383166110ba5760405162461bcd60e51b815260206004820152601e60248201527f526577617264733a20496e76616c69642076656e75652061646472657373000060448201526064016104b5565b603282101580156110cd57506101f48211155b6110e95760405162461bcd60e51b81526004016104b590611629565b60408051608081018252600180825260208083018681525f848601818152606086018281526001600160a01b038b1680845260178a0186528884209751885490151560ff1990911617885593518787015590516002870155516003909501949094556018860180549384018155845292200180546001600160a01b0319168217905590517f7c674fbb836d5f73688fdade72917cd236b13a7bf25a652cbeffc59de09303779061119c9085815260200190565b60405180910390a2505050565b335f9081527f99dc07a1da7c2c8b9d01a882532da5ca861f9326070b5c9d34c831d19e0fb52e60205260409020545f5160206116e05f395f51905f529060ff166112355760405162461bcd60e51b815260206004820152601c60248201527f4c696241707053746f726167653a204d7573742062652061646d696e0000000060448201526064016104b5565b50565b335f9081527f5a6d09871d9ef1da1e845f76ae7e3d9c6b7bac26bae59fbe224fbbfcff93dc8e60205260409020545f5160206116e05f395f51905f529060ff166112355760405162461bcd60e51b815260206004820152601d60248201527f4c696241707053746f726167653a204d757374206265206f7261636c6500000060448201526064016104b5565b7f7584c7413a623a30d701855d65da80b54e1c52170430bfee44c188cbe94267c85460ff16156113405760405162461bcd60e51b815260206004820152602160248201527f4c696241707053746f726167653a20436f6e74726163742069732070617573656044820152601960fa1b60648201526084016104b5565b565b7f7584c7413a623a30d701855d65da80b54e1c52170430bfee44c188cbe94267b2546001600160a01b0383165f9081527f7584c7413a623a30d701855d65da80b54e1c52170430bfee44c188cbe94267b560205260409020600101545f5160206116e05f395f51905f52906064906113ba90846116c8565b6113c4919061160a565b9150600483106113ed5760648160150154836113e091906116c8565b6113ea919061160a565b91505b6001600160a01b0385165f908152601282016020526040812060020154900361141e5761141b8260026116c8565b91505b509392505050565b80356001600160a01b038116811461143c575f5ffd5b919050565b5f60208284031215611451575f5ffd5b61145a82611426565b9392505050565b8035801515811461143c575f5ffd5b5f60208284031215611480575f5ffd5b61145a82611461565b5f5f5f6060848603121561149b575f5ffd5b6114a484611426565b9250602084013591506114b960408501611461565b90509250925092565b5f5f604083850312156114d3575f5ffd5b6114dc83611426565b91506114ea60208401611426565b90509250929050565b5f60208284031215611503575f5ffd5b5035919050565b5f5f5f5f6080858703121561151d575f5ffd5b61152685611426565b935061153460208601611426565b93969395505050506040820135916060013590565b602080825282518282018190525f918401906040840190835b818110156115895783516001600160a01b0316835260209384019390920191600101611562565b509095945050505050565b5f5f5f606084860312156115a6575f5ffd5b6115af84611426565b92506115bd60208501611426565b929592945050506040919091013590565b5f5f604083850312156115df575f5ffd5b6115e883611426565b946020939093013593505050565b634e487b7160e01b5f52601160045260245ffd5b5f8261162457634e487b7160e01b5f52601260045260245ffd5b500490565b60208082526026908201527f526577617264733a204d756c7469706c696572206d75737420626520302e3578604082015265040e8de406af60d31b606082015260800190565b5f60018201611680576116806115f6565b5060010190565b8082018082111561169a5761169a6115f6565b92915050565b634e487b7160e01b5f52603260045260245ffd5b634e487b7160e01b5f52604160045260245ffd5b808202811582820484141761169a5761169a6115f656fe7584c7413a623a30d701855d65da80b54e1c52170430bfee44c188cbe942679ea26469706673582212200c6eda205caf4b2dc06db85764e1e109a5ead91762a1af51241e92d884fb3a7664736f6c634300081e0033",
  "linkReferences": {},
  "deployedLinkReferences": {},
  "immutableReferences": {},
  "inputSourceName": "project/contracts/facets/RewardsFacet.sol",
  "buildInfoId": "solc-0_8_30-6ddef792a0a88ffc628c903573f21d517174eedf"
}