{
  "_format": "hh3-artifact-1",
  "contractName": "DiamondInit",
  "sourceName": "contracts/DiamondInit.sol",
  "abi": [
    {
      "inputs": [
        {
          "components": [
            {
              "internalType": "uint256",
              "name": "initialBTLSupply",
              "type": "uint256"
            },
            {
              "internalType": "address",
              "name": "initialTokenHolder",
              "type": "address"
            },
            {
              "internalType": "uint256",
              "name": "initialTreasuryUSDC",
              "type": "uint256"
            },
            {
              "internalType": "address",
              "name": "usdcAddress",
              "type": "address"
            },
            {
              "internalType": "address",
              "name": "daiAddress",
              "type": "address"
            },
            {
              "internalType": "address",
              "name": "admin",
              "type": "address"
            },
            {
              "internalType": "address",
              "name": "oracle",
              "type": "address"
            },
            {
              "internalType": "address",
              "name": "venueManager",
              "type": "address"
            },
            {
              "internalType": "address",
              "name": "treasuryManager",
              "type": "address"
            }
          ],
          "internalType": "struct DiamondInit.InitArgs",
          "name": "args",
          "type": "tuple"
        }
      ],
      "name": "init",
      "outputs": [],
      "stateMutability": "nonpayable",
      "type": "function"
    }
  ],
  "bytecode": "0x6080604052348015600e575f5ffd5b506106988061001c5f395ff3fe608060405234801561000f575f5ffd5b5060043610610029575f3560e01c8063513a43711461002d575b5f5ffd5b61004061003b36600461047a565b610042565b005b60408051808201909152600881526732626f74746c657360c01b60208201527f7584c7413a623a30d701855d65da80b54e1c52170430bfee44c188cbe942679e90819061008f90826105a7565b506040805180820190915260048152630c90951360e21b602082015260018201906100ba90826105a7565b5060028101805460ff191660121790558151600382018190556020808401516001600160a01b03165f908152600484018252604090819020929092556032600684015581518083019092526005825264283937b7b360d91b90820152600782019061012590826105a7565b50604080518082019091526005815264282927a7a360d91b6020820152600882019061015190826105a7565b50600981018054600660ff19918216179091555f600a8301819055600e83018190556103e8600f84015562093a8060108401556101f4602b84015542602c84015568056bc75e2d63100000601484015560966015840155600360168401556040848101516019850155601a84018290556130d4601b850155613a98601c8501556060850151601d850180546001600160a01b03199081166001600160a01b03938416179091556080870151601e870180549092169083161790556020808601849055611c2060228701556154606023870155683635c9adc5dea00000602487015569152d02c7e14af680000060258701557fa49807205ce4d355092ef5a8a18f56e8913cf4a201fbe287825b095693c2177584526029860180825283852060a08901518416865282528385208054871660019081179091557f68e79a7bf1e0bc45d0a330c573bc367f9cf464fd326078812f301165fbda4ef1865281835284862060c08a015185168752835284862080548816821790557f03dd4dbea8798346d03465e2519b5d4636310893c0f03a5e5bd7541b7eff320a865281835284862060e08a015185168752835284862080548816821790557fede9dcdb0ce99dc7cec9c7be9246ad08b37853683ad91569c187b647ddf5e21c86529082528385206101009098015190921684529586529082208054841682179055602a8401805462ffffff19169055602f8401829055603084018290556031840182905560329093018190557fc8fcad8db84d3cc18b4c41d551ea0ee66dd599cde068d998e57d5e09332c13209093527fb62596ad996339f237e8331aa4d0162b68ff76c7923561f522f3406d86e7c59f80548216831790557f7757ce35b7abd87e041f9a1508b2ae221c8918df934c2bffe0a3a226a172d44580548216831790556307f5828d60e41b9092527f5d0a0c193ceaf6e2dbec4b7d92e9739558565e0c03aa124f17fe0bb04caed3578054909216179055565b634e487b7160e01b5f52604160045260245ffd5b604051610120810167ffffffffffffffff8111828210171561045957610459610421565b60405290565b80356001600160a01b0381168114610475575f5ffd5b919050565b5f61012082840312801561048c575f5ffd5b50610495610435565b823581526104a56020840161045f565b6020820152604083810135908201526104c06060840161045f565b60608201526104d16080840161045f565b60808201526104e260a0840161045f565b60a08201526104f360c0840161045f565b60c082015261050460e0840161045f565b60e0820152610516610100840161045f565b6101008201529392505050565b600181811c9082168061053757607f821691505b60208210810361055557634e487b7160e01b5f52602260045260245ffd5b50919050565b601f8211156105a257805f5260205f20601f840160051c810160208510156105805750805b601f840160051c820191505b8181101561059f575f815560010161058c565b50505b505050565b815167ffffffffffffffff8111156105c1576105c1610421565b6105d5816105cf8454610523565b8461055b565b6020601f821160018114610607575f83156105f05750848201515b5f19600385901b1c1916600184901b17845561059f565b5f84815260208120601f198516915b828110156106365787850151825560209485019460019092019101610616565b508482101561065357868401515f19600387901b60f8161c191681555b50505050600190811b0190555056fea2646970667358221220b0e1637535f1e705a7a80253badaa5901c17068bd9950ca98ecc875bbe8a584664736f6c634300081e0033",
  "linkReferences": {},
  "deployedLinkReferences": {},
  "immutableReferences": {},
  "inputSourceName": "project/contracts/DiamondInit.sol",
  "buildInfoId": "solc-0_8_30-bee95e59663e93ea68953431436e51bc97b8e13e"
}