{
  "_format": "hh3-artifact-1",
  "contractName": "DiamondLoupeFacet",
  "sourceName": "contracts/facets/DiamondLoupeFacet.sol",
  "abi": [
    {
      "inputs": [
        {
          "internalType": "bytes4",
          "name": "_functionSelector",
          "type": "bytes4"
        }
      ],
      "name": "facetAddress",
      "outputs": [
        {
          "internalType": "address",
          "name": "",
          "type": "address"
        }
      ],
      "stateMutability": "view",
      "type": "function"
    },
    {
      "inputs": [],
      "name": "facetAddresses",
      "outputs": [
        {
          "internalType": "address[]",
          "name": "",
          "type": "address[]"
        }
      ],
      "stateMutability": "view",
      "type": "function"
    },
    {
      "inputs": [
        {
          "internalType": "address",
          "name": "_facet",
          "type": "address"
        }
      ],
      "name": "facetFunctionSelectors",
      "outputs": [
        {
          "internalType": "bytes4[]",
          "name": "",
          "type": "bytes4[]"
        }
      ],
      "stateMutability": "view",
      "type": "function"
    },
    {
      "inputs": [],
      "name": "facets",
      "outputs": [
        {
          "components": [
            {
              "internalType": "address",
              "name": "facetAddress",
              "type": "address"
            },
            {
              "internalType": "bytes4[]",
              "name": "functionSelectors",
              "type": "bytes4[]"
            }
          ],
          "internalType": "struct IDiamondLoupe.Facet[]",
          "name": "",
          "type": "tuple[]"
        }
      ],
      "stateMutability": "view",
      "type": "function"
    }
  ],
  "bytecode": "0x6080604052348015600e575f5ffd5b506105da8061001c5f395ff3fe608060405234801561000f575f5ffd5b506004361061004a575f3560e01c806352ef6b2c1461004e5780637a0ed6271461006c578063adfca15e14610081578063cdffacc6146100a1575b5f5ffd5b6100566100f7565b60405161006391906103e4565b60405180910390f35b610074610166565b6040516100639190610473565b61009461008f3660046104f6565b61031d565b6040516100639190610523565b6100df6100af366004610535565b6001600160e01b0319165f9081525f5160206105855f395f51905f5260205260409020546001600160a01b031690565b6040516001600160a01b039091168152602001610063565b60605f5f5160206105855f395f51905f526002810180546040805160208084028201810190925282815293945083018282801561015b57602002820191905f5260205f20905b81546001600160a01b0316815260019091019060200180831161013d575b505050505091505090565b7fc8fcad8db84d3cc18b4c41d551ea0ee66dd599cde068d998e57d5e09332c131e546060905f5160206105855f395f51905f52905f8167ffffffffffffffff8111156101b4576101b461055c565b6040519080825280602002602001820160405280156101f957816020015b604080518082019091525f8152606060208201528152602001906001900390816101d25790505b5090505f5b82811015610315575f84600201828154811061021c5761021c610570565b905f5260205f20015f9054906101000a90046001600160a01b031690508083838151811061024c5761024c610570565b6020908102919091018101516001600160a01b0392831690529082165f908152600187018252604090819020805482518185028101850190935280835291929091908301828280156102e757602002820191905f5260205f20905f905b82829054906101000a900460e01b6001600160e01b031916815260200190600401906020826003010492830192600103820291508084116102a95790505b50505050508383815181106102fe576102fe610570565b6020908102919091018101510152506001016101fe565b509392505050565b6001600160a01b0381165f9081527fc8fcad8db84d3cc18b4c41d551ea0ee66dd599cde068d998e57d5e09332c131d602090815260409182902080548351818402810184019094528084526060935f5160206105855f395f51905f5293909291908301828280156103d757602002820191905f5260205f20905f905b82829054906101000a900460e01b6001600160e01b031916815260200190600401906020826003010492830192600103820291508084116103995790505b5050505050915050919050565b602080825282518282018190525f918401906040840190835b818110156104245783516001600160a01b03168352602093840193909201916001016103fd565b509095945050505050565b5f8151808452602084019350602083015f5b828110156104695781516001600160e01b031916865260209586019590910190600101610441565b5093949350505050565b5f602082016020835280845180835260408501915060408160051b8601019250602086015f5b828110156104ea57868503603f19018452815180516001600160a01b031686526020908101516040918701829052906104d49087018261042f565b9550506020938401939190910190600101610499565b50929695505050505050565b5f60208284031215610506575f5ffd5b81356001600160a01b038116811461051c575f5ffd5b9392505050565b602081525f61051c602083018461042f565b5f60208284031215610545575f5ffd5b81356001600160e01b03198116811461051c575f5ffd5b634e487b7160e01b5f52604160045260245ffd5b634e487b7160e01b5f52603260045260245ffdfec8fcad8db84d3cc18b4c41d551ea0ee66dd599cde068d998e57d5e09332c131ca264697066735822122004e926cd84b1e8b6e4c20170da36d473e7ee62c6def73466aaa4db99b5dbfb4b64736f6c634300081e0033",
  "linkReferences": {},
  "deployedLinkReferences": {},
  "immutableReferences": {},
  "inputSourceName": "project/contracts/facets/DiamondLoupeFacet.sol",
  "buildInfoId": "solc-0_8_30-eebcdb39c08d612a2c902d300899c98592906ab6"
}