{
  "_format": "hh3-artifact-1",
  "contractName": "TreasuryFacet",
  "sourceName": "contracts/facets/TreasuryFacet.sol",
  "abi": [
    {
      "anonymous": false,
      "inputs": [
        {
          "indexed": false,
          "internalType": "uint256",
          "name": "usdcSpent",
          "type": "uint256"
        },
        {
          "indexed": false,
          "internalType": "uint256",
          "name": "btlBought",
          "type": "uint256"
        }
      ],
      "name": "BuybackExecuted",
      "type": "event"
    },
    {
      "anonymous": false,
      "inputs": [
        {
          "indexed": false,
          "internalType": "uint256",
          "name": "newMinRatio",
          "type": "uint256"
        },
        {
          "indexed": false,
          "internalType": "uint256",
          "name": "newTargetRatio",
          "type": "uint256"
        }
      ],
      "name": "CollateralRatioUpdated",
      "type": "event"
    },
    {
      "anonymous": false,
      "inputs": [
        {
          "indexed": true,
          "internalType": "address",
          "name": "token",
          "type": "address"
        },
        {
          "indexed": false,
          "internalType": "uint256",
          "name": "amount",
          "type": "uint256"
        },
        {
          "indexed": true,
          "internalType": "address",
          "name": "to",
          "type": "address"
        }
      ],
      "name": "EmergencyWithdraw",
      "type": "event"
    },
    {
      "anonymous": false,
      "inputs": [
        {
          "indexed": true,
          "internalType": "address",
          "name": "token",
          "type": "address"
        },
        {
          "indexed": false,
          "internalType": "uint256",
          "name": "amount",
          "type": "uint256"
        },
        {
          "indexed": true,
          "internalType": "address",
          "name": "from",
          "type": "address"
        }
      ],
      "name": "TreasuryDeposit",
      "type": "event"
    },
    {
      "anonymous": false,
      "inputs": [
        {
          "indexed": true,
          "internalType": "address",
          "name": "token",
          "type": "address"
        },
        {
          "indexed": false,
          "internalType": "uint256",
          "name": "amount",
          "type": "uint256"
        },
        {
          "indexed": true,
          "internalType": "address",
          "name": "to",
          "type": "address"
        }
      ],
      "name": "TreasuryWithdrawal",
      "type": "event"
    },
    {
      "inputs": [
        {
          "internalType": "uint256",
          "name": "amount",
          "type": "uint256"
        }
      ],
      "name": "depositDAI",
      "outputs": [],
      "stateMutability": "nonpayable",
      "type": "function"
    },
    {
      "inputs": [
        {
          "internalType": "uint256",
          "name": "amount",
          "type": "uint256"
        }
      ],
      "name": "depositUSDC",
      "outputs": [],
      "stateMutability": "nonpayable",
      "type": "function"
    },
    {
      "inputs": [
        {
          "internalType": "address",
          "name": "token",
          "type": "address"
        },
        {
          "internalType": "uint256",
          "name": "amount",
          "type": "uint256"
        },
        {
          "internalType": "address",
          "name": "to",
          "type": "address"
        }
      ],
      "name": "emergencyWithdraw",
      "outputs": [],
      "stateMutability": "nonpayable",
      "type": "function"
    },
    {
      "inputs": [
        {
          "internalType": "uint256",
          "name": "usdcAmount",
          "type": "uint256"
        }
      ],
      "name": "executeBuyback",
      "outputs": [],
      "stateMutability": "nonpayable",
      "type": "function"
    },
    {
      "inputs": [],
      "name": "getCollateralizationHealth",
      "outputs": [
        {
          "internalType": "bool",
          "name": "isHealthy",
          "type": "bool"
        },
        {
          "internalType": "uint256",
          "name": "currentRatio",
          "type": "uint256"
        },
        {
          "internalType": "uint256",
          "name": "minRatio",
          "type": "uint256"
        },
        {
          "internalType": "uint256",
          "name": "targetRatio",
          "type": "uint256"
        }
      ],
      "stateMutability": "view",
      "type": "function"
    },
    {
      "inputs": [],
      "name": "getCollateralizationRatio",
      "outputs": [
        {
          "internalType": "uint256",
          "name": "",
          "type": "uint256"
        }
      ],
      "stateMutability": "view",
      "type": "function"
    },
    {
      "inputs": [],
      "name": "getExcessCollateral",
      "outputs": [
        {
          "internalType": "uint256",
          "name": "excessUSDC",
          "type": "uint256"
        }
      ],
      "stateMutability": "view",
      "type": "function"
    },
    {
      "inputs": [],
      "name": "getTreasuryBalances",
      "outputs": [
        {
          "internalType": "uint256",
          "name": "usdcBalance",
          "type": "uint256"
        },
        {
          "internalType": "uint256",
          "name": "daiBalance",
          "type": "uint256"
        },
        {
          "internalType": "uint256",
          "name": "totalValue",
          "type": "uint256"
        }
      ],
      "stateMutability": "view",
      "type": "function"
    },
    {
      "inputs": [
        {
          "internalType": "bytes32",
          "name": "role",
          "type": "bytes32"
        },
        {
          "internalType": "address",
          "name": "account",
          "type": "address"
        }
      ],
      "name": "grantRole",
      "outputs": [],
      "stateMutability": "nonpayable",
      "type": "function"
    },
    {
      "inputs": [
        {
          "internalType": "bytes32",
          "name": "role",
          "type": "bytes32"
        },
        {
          "internalType": "address",
          "name": "account",
          "type": "address"
        }
      ],
      "name": "hasRole",
      "outputs": [
        {
          "internalType": "bool",
          "name": "",
          "type": "bool"
        }
      ],
      "stateMutability": "view",
      "type": "function"
    },
    {
      "inputs": [
        {
          "internalType": "bytes32",
          "name": "role",
          "type": "bytes32"
        },
        {
          "internalType": "address",
          "name": "account",
          "type": "address"
        }
      ],
      "name": "revokeRole",
      "outputs": [],
      "stateMutability": "nonpayable",
      "type": "function"
    },
    {
      "inputs": [
        {
          "internalType": "uint256",
          "name": "newMinRatio",
          "type": "uint256"
        },
        {
          "internalType": "uint256",
          "name": "newTargetRatio",
          "type": "uint256"
        }
      ],
      "name": "setCollateralRatios",
      "outputs": [],
      "stateMutability": "nonpayable",
      "type": "function"
    },
    {
      "inputs": [
        {
          "internalType": "bool",
          "name": "paused",
          "type": "bool"
        }
      ],
      "name": "setPaused",
      "outputs": [],
      "stateMutability": "nonpayable",
      "type": "function"
    },
    {
      "inputs": [
        {
          "internalType": "address",
          "name": "usdcAddress",
          "type": "address"
        },
        {
          "internalType": "address",
          "name": "daiAddress",
          "type": "address"
        }
      ],
      "name": "setStablecoinAddresses",
      "outputs": [],
      "stateMutability": "nonpayable",
      "type": "function"
    },
    {
      "inputs": [
        {
          "internalType": "uint256",
          "name": "amount",
          "type": "uint256"
        },
        {
          "internalType": "address",
          "name": "to",
          "type": "address"
        }
      ],
      "name": "withdrawDAI",
      "outputs": [],
      "stateMutability": "nonpayable",
      "type": "function"
    },
    {
      "inputs": [
        {
          "internalType": "uint256",
          "name": "amount",
          "type": "uint256"
        },
        {
          "internalType": "address",
          "name": "to",
          "type": "address"
        }
      ],
      "name": "withdrawUSDC",
      "outputs": [],
      "stateMutability": "nonpayable",
      "type": "function"
    }
  ],
  "bytecode": "0x6080604052348015600e575f5ffd5b506114368061001c5f395ff3fe608060405234801561000f575f5ffd5b50600436106100fb575f3560e01c806386ef573811610093578063da089e4a11610063578063da089e4a14610209578063ea0706201461021c578063f688bcfb1461022f578063fc5bb15c14610242575f5ffd5b806386ef5738146101b557806391d14854146101cb578063a4e3c311146101ee578063d547741f146101f6575f5ffd5b8063365833e1116100ce578063365833e11461014d57806344c8544414610160578063551512de1461018f5780636869c673146101a2575f5ffd5b80630c1241b5146100ff57806316c38b3c146101145780632b63cc71146101275780632f2ff15d1461013a575b5f5ffd5b61011261010d3660046111bd565b610265565b005b6101126101223660046111e7565b610436565b6101126101353660046111bd565b61045c565b6101126101483660046111bd565b610648565b61011261015b36600461120d565b61065e565b610168610721565b60408051941515855260208501939093529183015260608201526080015b60405180910390f35b61011261019d366004611224565b610755565b6101126101b036600461120d565b610903565b6101bd610bae565b604051908152602001610186565b6101de6101d93660046111bd565b610bbc565b6040519015158152602001610186565b6101bd610bd0565b6101126102043660046111bd565b610c55565b61011261021736600461125d565b610c67565b61011261022a366004611285565b610d5c565b61011261023d36600461120d565b610ebc565b61024a610f77565b60408051938452602084019290925290820152606001610186565b5f61026e610fa6565b7fede9dcdb0ce99dc7cec9c7be9246ad08b37853683ad91569c187b647ddf5e21c5f908152602982016020908152604080832033845290915290205490915060ff166102d55760405162461bcd60e51b81526004016102cc906112a5565b60405180910390fd5b6102dd610fca565b5f831161032c5760405162461bcd60e51b815260206004820152601e60248201527f54726561737572793a2043616e6e6f74207769746864726177207a65726f000060448201526064016102cc565b6001600160a01b0382166103525760405162461bcd60e51b81526004016102cc906112dc565b82816019015410156103765760405162461bcd60e51b81526004016102cc90611313565b5f838260190154610387919061135e565b90505f82601a01548261039a9190611371565b90505f61271084601b015485600a01546103b49190611384565b6103be919061139b565b9050808210156103e05760405162461bcd60e51b81526004016102cc906113ba565b60198401839055601d8401546040518781526001600160a01b038781169216907f15596072c803eddeee7aae343e846f411bf951c23ef910e91eff4cc1a84110a7906020015b60405180910390a3505050505050565b61043e611032565b80610447610fa6565b602a01805460ff191691151591909117905550565b5f610465610fa6565b7fede9dcdb0ce99dc7cec9c7be9246ad08b37853683ad91569c187b647ddf5e21c5f908152602982016020908152604080832033845290915290205490915060ff166104c35760405162461bcd60e51b81526004016102cc906112a5565b6104cb610fca565b5f831161051a5760405162461bcd60e51b815260206004820152601e60248201527f54726561737572793a2043616e6e6f74207769746864726177207a65726f000060448201526064016102cc565b6001600160a01b0382166105405760405162461bcd60e51b81526004016102cc906112dc565b8281601a015410156105945760405162461bcd60e51b815260206004820152601a60248201527f54726561737572793a20496e73756666696369656e742044414900000000000060448201526064016102cc565b5f8382601a01546105a5919061135e565b90505f8183601901546105b89190611371565b90505f61271084601b015485600a01546105d29190611384565b6105dc919061139b565b9050808210156105fe5760405162461bcd60e51b81526004016102cc906113ba565b601a8401839055601e8401546040518781526001600160a01b038781169216907f15596072c803eddeee7aae343e846f411bf951c23ef910e91eff4cc1a84110a790602001610426565b610650611032565b61065a82826110cc565b5050565b5f610667610fa6565b9050610671610fca565b5f82116106c05760405162461bcd60e51b815260206004820152601d60248201527f54726561737572793a2043616e6e6f74206465706f736974207a65726f00000060448201526064016102cc565b8181601a015f8282546106d39190611371565b9091555050601e81015460405183815233916001600160a01b0316907fb906cc5fba109fdcd8c55ad082c1408b0cc5f0a7fa925bd9424f47816bafaf18906020015b60405180910390a35050565b5f5f5f5f5f61072e610fa6565b905061073861110b565b935080601b0154925080601c015491508284101594505090919293565b61075d611032565b6001600160a01b0381166107835760405162461bcd60e51b81526004016102cc906112dc565b5f61078c610fa6565b601d8101549091506001600160a01b03908116908516036107e95782816019015410156107cb5760405162461bcd60e51b81526004016102cc90611313565b82816019015f8282546107de919061135e565b909155506108b09050565b601e8101546001600160a01b0390811690851603610868578281601a015410156108555760405162461bcd60e51b815260206004820152601a60248201527f54726561737572793a20496e73756666696369656e742044414900000000000060448201526064016102cc565b8281601a015f8282546107de919061135e565b60405162461bcd60e51b815260206004820152601b60248201527f54726561737572793a20556e737570706f7274656420746f6b656e000000000060448201526064016102cc565b816001600160a01b0316846001600160a01b03167faaeda929aa102e867049528ec7cd2499e3a2f8846e736ae7935f234dfbf500d9856040516108f591815260200190565b60405180910390a350505050565b5f61090c610fa6565b7fede9dcdb0ce99dc7cec9c7be9246ad08b37853683ad91569c187b647ddf5e21c5f908152602982016020908152604080832033845290915290205490915060ff1661096a5760405162461bcd60e51b81526004016102cc906112a5565b610972610fca565b5f82116109c15760405162461bcd60e51b815260206004820152601d60248201527f54726561737572793a2043616e6e6f74206275796261636b207a65726f00000060448201526064016102cc565b5f6109ca61110b565b905081601c01548111610a1f5760405162461bcd60e51b815260206004820181905260248201527f54726561737572793a204e6f74206f766572636f6c6c61746572616c697a656460448201526064016102cc565b5f82601a01548360190154610a349190611371565b90505f61271084601c015485600a0154610a4e9190611384565b610a58919061139b565b90505f818311610a68575f610a72565b610a72828461135e565b905080861115610ad75760405162461bcd60e51b815260206004820152602a60248201527f54726561737572793a20416d6f756e742065786365656473206578636573732060448201526918dbdb1b185d195c985b60b21b60648201526084016102cc565b8460190154861115610afb5760405162461bcd60e51b81526004016102cc90611313565b85856019015f828254610b0e919061135e565b909155505f905066b1a2bc2ec50000610b2f88670de0b6b3a7640000611384565b610b39919061139b565b90505f81118015610b4e575080866003015410155b15610b6c5780866003015f828254610b66919061135e565b90915550505b60408051888152602081018390527f8e8412cac6b961b95ef832e2bac486977bbd29eb9725f9eddd97f3380c31f649910160405180910390a150505050505050565b5f610bb761110b565b905090565b5f610bc78383611164565b90505b92915050565b5f5f610bda610fa6565b90505f610be561110b565b905081601c01548111610bfa575f9250505090565b5f82601a01548360190154610c0f9190611371565b90505f61271084601c015485600a0154610c299190611384565b610c33919061139b565b9050808211610c42575f610c4c565b610c4c818361135e565b94505050505090565b610c5d611032565b61065a8282611199565b610c6f611032565b6001600160a01b038216610cc55760405162461bcd60e51b815260206004820152601e60248201527f54726561737572793a20496e76616c696420555344432061646472657373000060448201526064016102cc565b6001600160a01b038116610d1b5760405162461bcd60e51b815260206004820152601d60248201527f54726561737572793a20496e76616c696420444149206164647265737300000060448201526064016102cc565b5f610d24610fa6565b601d810180546001600160a01b039586166001600160a01b031991821617909155601e90910180549390941692169190911790915550565b610d64611032565b612710821015610dc25760405162461bcd60e51b815260206004820152602360248201527f54726561737572793a204d696e20726174696f206d757374206265203e3d203160448201526230302560e81b60648201526084016102cc565b81811015610e125760405162461bcd60e51b815260206004820152601f60248201527f54726561737572793a20546172676574206d757374206265203e3d206d696e0060448201526064016102cc565b617530811115610e645760405162461bcd60e51b815260206004820152601f60248201527f54726561737572793a2054617267657420726174696f20746f6f20686967680060448201526064016102cc565b5f610e6d610fa6565b601b8101849055601c810183905560408051858152602081018590529192507fea851fc89ebccda62380b76fc8e8317f0bcd4d75ea908cf501bd2ebc6ac1c8f2910160405180910390a1505050565b5f610ec5610fa6565b9050610ecf610fca565b5f8211610f1e5760405162461bcd60e51b815260206004820152601d60248201527f54726561737572793a2043616e6e6f74206465706f736974207a65726f00000060448201526064016102cc565b81816019015f828254610f319190611371565b9091555050601d81015460405183815233916001600160a01b0316907fb906cc5fba109fdcd8c55ad082c1408b0cc5f0a7fa925bd9424f47816bafaf1890602001610715565b5f5f5f5f610f83610fa6565b6019810154601a82015490955093509050610f9e8385611371565b915050909192565b7f7584c7413a623a30d701855d65da80b54e1c52170430bfee44c188cbe942679e90565b610fd2610fa6565b602a015460ff16156110305760405162461bcd60e51b815260206004820152602160248201527f4c696241707053746f726167653a20436f6e74726163742069732070617573656044820152601960fa1b60648201526084016102cc565b565b5f61103b610fa6565b7fa49807205ce4d355092ef5a8a18f56e8913cf4a201fbe287825b095693c217755f908152602982016020908152604080832033845290915290205490915060ff166110c95760405162461bcd60e51b815260206004820152601c60248201527f4c696241707053746f726167653a204d7573742062652061646d696e0000000060448201526064016102cc565b50565b60016110d6610fa6565b5f938452602901602090815260408085206001600160a01b039490941685529290529120805460ff1916911515919091179055565b5f5f611115610fa6565b905080600a01545f0361112a575f1991505090565b5f81601a0154826019015461113f9190611371565b600a83015490915061115361271083611384565b61115d919061139b565b9250505090565b5f61116d610fa6565b5f938452602901602090815260408085206001600160a01b039490941685529290525090205460ff1690565b5f6110d6610fa6565b80356001600160a01b03811681146111b8575f5ffd5b919050565b5f5f604083850312156111ce575f5ffd5b823591506111de602084016111a2565b90509250929050565b5f602082840312156111f7575f5ffd5b81358015158114611206575f5ffd5b9392505050565b5f6020828403121561121d575f5ffd5b5035919050565b5f5f5f60608486031215611236575f5ffd5b61123f846111a2565b925060208401359150611254604085016111a2565b90509250925092565b5f5f6040838503121561126e575f5ffd5b611277836111a2565b91506111de602084016111a2565b5f5f60408385031215611296575f5ffd5b50508035926020909101359150565b60208082526018908201527f54726561737572793a204e6f7420617574686f72697a65640000000000000000604082015260600190565b6020808252601b908201527f54726561737572793a20496e76616c696420726563697069656e740000000000604082015260600190565b6020808252601b908201527f54726561737572793a20496e73756666696369656e7420555344430000000000604082015260600190565b634e487b7160e01b5f52601160045260245ffd5b81810381811115610bca57610bca61134a565b80820180821115610bca57610bca61134a565b8082028115828204841417610bca57610bca61134a565b5f826113b557634e487b7160e01b5f52601260045260245ffd5b500490565b60208082526026908201527f54726561737572793a20576f756c6420627265616b20636f6c6c61746572616c60408201526520726174696f60d01b60608201526080019056fea264697066735822122030a133b65f560695506b1a17b34fd1c56de6441dc6713adf738376335aee12cd64736f6c634300081e0033",
  "linkReferences": {},
  "deployedLinkReferences": {},
  "immutableReferences": {},
  "inputSourceName": "project/contracts/facets/TreasuryFacet.sol",
  "buildInfoId": "solc-0_8_30-b01f7962a33bfda9031b29a6042ff966588b9723"
}